{
  "contractName": "RBAC",
  "abi": [
    {
      "constant": true,
      "inputs": [],
      "name": "owner",
      "outputs": [
        {
          "internalType": "address",
          "name": "",
          "type": "address"
        }
      ],
      "payable": false,
      "stateMutability": "view",
      "type": "function"
    },
    {
      "constant": false,
      "inputs": [
        {
          "internalType": "address",
          "name": "newOwner",
          "type": "address"
        }
      ],
      "name": "transferOwnership",
      "outputs": [],
      "payable": false,
      "stateMutability": "nonpayable",
      "type": "function"
    },
    {
      "anonymous": false,
      "inputs": [
        {
          "indexed": true,
          "internalType": "address",
          "name": "operator",
          "type": "address"
        },
        {
          "indexed": false,
          "internalType": "uint256",
          "name": "role",
          "type": "uint256"
        }
      ],
      "name": "RoleAdded",
      "type": "event"
    },
    {
      "anonymous": false,
      "inputs": [
        {
          "indexed": true,
          "internalType": "address",
          "name": "operator",
          "type": "address"
        },
        {
          "indexed": false,
          "internalType": "uint256",
          "name": "role",
          "type": "uint256"
        }
      ],
      "name": "RoleRemoved",
      "type": "event"
    },
    {
      "anonymous": false,
      "inputs": [
        {
          "indexed": true,
          "internalType": "address",
          "name": "previousOwner",
          "type": "address"
        },
        {
          "indexed": true,
          "internalType": "address",
          "name": "newOwner",
          "type": "address"
        }
      ],
      "name": "OwnershipTransferred",
      "type": "event"
    },
    {
      "constant": true,
      "inputs": [
        {
          "internalType": "address",
          "name": "_operator",
          "type": "address"
        },
        {
          "internalType": "uint256",
          "name": "_role",
          "type": "uint256"
        }
      ],
      "name": "checkRole",
      "outputs": [],
      "payable": false,
      "stateMutability": "view",
      "type": "function"
    },
    {
      "constant": true,
      "inputs": [
        {
          "internalType": "address",
          "name": "_operator",
          "type": "address"
        },
        {
          "internalType": "uint256",
          "name": "_role",
          "type": "uint256"
        }
      ],
      "name": "hasRole",
      "outputs": [
        {
          "internalType": "bool",
          "name": "",
          "type": "bool"
        }
      ],
      "payable": false,
      "stateMutability": "view",
      "type": "function"
    },
    {
      "constant": false,
      "inputs": [
        {
          "internalType": "address",
          "name": "_operator",
          "type": "address"
        },
        {
          "internalType": "uint256",
          "name": "_role",
          "type": "uint256"
        }
      ],
      "name": "addAddressRole",
      "outputs": [],
      "payable": false,
      "stateMutability": "nonpayable",
      "type": "function"
    },
    {
      "constant": false,
      "inputs": [
        {
          "internalType": "address",
          "name": "_operator",
          "type": "address"
        },
        {
          "internalType": "uint256",
          "name": "_role",
          "type": "uint256"
        }
      ],
      "name": "removeRole",
      "outputs": [],
      "payable": false,
      "stateMutability": "nonpayable",
      "type": "function"
    },
    {
      "constant": true,
      "inputs": [],
      "name": "testConnection",
      "outputs": [
        {
          "internalType": "bool",
          "name": "",
          "type": "bool"
        }
      ],
      "payable": false,
      "stateMutability": "pure",
      "type": "function"
    },
    {
      "constant": true,
      "inputs": [],
      "name": "getAddress",
      "outputs": [
        {
          "internalType": "address",
          "name": "",
          "type": "address"
        }
      ],
      "payable": false,
      "stateMutability": "view",
      "type": "function"
    }
  ],
  "bytecode": "0x6080604052336000806101000a81548173ffffffffffffffffffffffffffffffffffffffff021916908373ffffffffffffffffffffffffffffffffffffffff1602179055506108e2806100536000396000f3fe608060405234801561001057600080fd5b50600436106100a5576000357c0100000000000000000000000000000000000000000000000000000000900480635c97f4a2116100785780635c97f4a2146101b257806379db5f67146102185780638da5cb5b14610266578063f2fde38b146102b0576100a5565b8063045b5271146100aa5780633412a15c146100f857806338cc48311461011a578063505ef22f14610164575b600080fd5b6100f6600480360360408110156100c057600080fd5b81019080803573ffffffffffffffffffffffffffffffffffffffff169060200190929190803590602001909291905050506102f4565b005b6101006103c4565b604051808215151515815260200191505060405180910390f35b6101226103cd565b604051808273ffffffffffffffffffffffffffffffffffffffff1673ffffffffffffffffffffffffffffffffffffffff16815260200191505060405180910390f35b6101b06004803603604081101561017a57600080fd5b81019080803573ffffffffffffffffffffffffffffffffffffffff169060200190929190803590602001909291905050506103d5565b005b6101fe600480360360408110156101c857600080fd5b81019080803573ffffffffffffffffffffffffffffffffffffffff169060200190929190803590602001909291905050506103fe565b604051808215151515815260200191505060405180910390f35b6102646004803603604081101561022e57600080fd5b81019080803573ffffffffffffffffffffffffffffffffffffffff1690602001909291908035906020019092919050505061042d565b005b61026e6104fd565b604051808273ffffffffffffffffffffffffffffffffffffffff1673ffffffffffffffffffffffffffffffffffffffff16815260200191505060405180910390f35b6102f2600480360360208110156102c657600080fd5b81019080803573ffffffffffffffffffffffffffffffffffffffff169060200190929190505050610522565b005b6000809054906101000a900473ffffffffffffffffffffffffffffffffffffffff1673ffffffffffffffffffffffffffffffffffffffff163373ffffffffffffffffffffffffffffffffffffffff161461034d57600080fd5b610372826001600084815260200190815260200160002061067390919063ffffffff16565b8173ffffffffffffffffffffffffffffffffffffffff167fd303e35f0755bf99d44ea8a40a661aad6fd44d39ffccd56511832d9f4d41d6be826040518082815260200191505060405180910390a25050565b60006001905090565b600030905090565b6103fa826001600084815260200190815260200160002061071f90919063ffffffff16565b5050565b6000610425836001600085815260200190815260200160002061077090919063ffffffff16565b905092915050565b6000809054906101000a900473ffffffffffffffffffffffffffffffffffffffff1673ffffffffffffffffffffffffffffffffffffffff163373ffffffffffffffffffffffffffffffffffffffff161461048657600080fd5b6104ab826001600084815260200190815260200160002061080290919063ffffffff16565b8173ffffffffffffffffffffffffffffffffffffffff167f268a6f1b90f6f5ddf50cc736d36513e80cdc5fd56326bff71f335e8b4b61d055826040518082815260200191505060405180910390a25050565b6000809054906101000a900473ffffffffffffffffffffffffffffffffffffffff1681565b6000809054906101000a900473ffffffffffffffffffffffffffffffffffffffff1673ffffffffffffffffffffffffffffffffffffffff163373ffffffffffffffffffffffffffffffffffffffff161461057b57600080fd5b600073ffffffffffffffffffffffffffffffffffffffff168173ffffffffffffffffffffffffffffffffffffffff1614156105b557600080fd5b8073ffffffffffffffffffffffffffffffffffffffff166000809054906101000a900473ffffffffffffffffffffffffffffffffffffffff1673ffffffffffffffffffffffffffffffffffffffff167f8be0079c531659141344cd1fd0a4f28419497f9722a3daafe3b4186f6b6457e060405160405180910390a3806000806101000a81548173ffffffffffffffffffffffffffffffffffffffff021916908373ffffffffffffffffffffffffffffffffffffffff16021790555050565b600073ffffffffffffffffffffffffffffffffffffffff168173ffffffffffffffffffffffffffffffffffffffff1614156106ad57600080fd5b6106b78282610770565b156106c157600080fd5b60018260000160008373ffffffffffffffffffffffffffffffffffffffff1673ffffffffffffffffffffffffffffffffffffffff16815260200190815260200160002060006101000a81548160ff0219169083151502179055505050565b600073ffffffffffffffffffffffffffffffffffffffff168173ffffffffffffffffffffffffffffffffffffffff16141561075957600080fd5b6107638282610770565b61076c57600080fd5b5050565b60008073ffffffffffffffffffffffffffffffffffffffff168273ffffffffffffffffffffffffffffffffffffffff1614156107ab57600080fd5b8260000160008373ffffffffffffffffffffffffffffffffffffffff1673ffffffffffffffffffffffffffffffffffffffff16815260200190815260200160002060009054906101000a900460ff16905092915050565b600073ffffffffffffffffffffffffffffffffffffffff168173ffffffffffffffffffffffffffffffffffffffff16141561083c57600080fd5b6108468282610770565b61084f57600080fd5b60008260000160008373ffffffffffffffffffffffffffffffffffffffff1673ffffffffffffffffffffffffffffffffffffffff16815260200190815260200160002060006101000a81548160ff021916908315150217905550505056fea265627a7a72315820980115cd5ab00539e209845e35e986d1031418e1527159b97e8ef0436b9bef2764736f6c634300050b0032",
  "source": "pragma solidity >=0.4.22 <0.6.0;\r\n \r\nimport \"./Roles.sol\";\r\nimport \"./Ownable.sol\";\r\n \r\n/**\r\n * @title RBAC (Role-Based Access Control)\r\n * @dev Stores and provides setters and getters for roles and addresses.\r\n * This RBAC method uses strings to key roles.\r\n */\r\n \r\ncontract RBAC is Ownable{\r\n     \r\n   using Roles for Roles.Role;\r\n \r\n   mapping (uint => Roles.Role) private roles;\r\n \r\n   event RoleAdded(address indexed operator, uint role);\r\n   event RoleRemoved(address indexed operator, uint role);\r\n   \r\n   //enum RoleChoices { setBasic, setMiddle, setTop }\r\n   //uint numRole = 3;\r\n   //RoleChoices choice;\r\n   //RoleChoices constant defaultChoice = RoleChoices.setBasic;\r\n    \r\n   //Client address\r\n    //address internal clientAddr = 0x0000000000000000000000000000000000000000;\r\n    //ClientInterface internal client = ClientInterface(clientAddr);\r\n    \r\n/*     \r\n    /// @notice gets the address of the owner  \r\n    /// @return the address of the owner\r\n    function getOwner() public view returns(address){\r\n        return client.getOwner();\r\n    }\r\n */\r\n    /// @notice sets the address of the client contract to use  \r\n    /// @dev setting a wrong address may result in false return value, or error  \r\n    /// @param _clientAddress the address of the client\r\n    /// @return true if connection to the new client address was successful\r\n/*    function setClientAddress(address _clientAddress) external onlyOwner returns (bool) { //private\r\n        clientAddr = _clientAddress;\r\n        client = ClientInterface(clientAddr);  \r\n        return client.testConnection();\r\n    }\r\n \r\n    /// @notice gets the address of the client being used  \r\n    /// @return the address of the currently set client\r\n    function getClientAddress() external view returns (address) {  //private\r\n        return clientAddr;\r\n    }*/\r\n \r\n   ///@dev reverts if addr does not have role\r\n   ///@param _operator address\r\n   ///@param _role the name of the role\r\n   /// reverts\r\n  function checkRole(address _operator, uint _role) view public{  //external / private\r\n    roles[_role].check(_operator);\r\n  }\r\n \r\n   ///@dev determine if addr has role\r\n   ///@param _operator address\r\n   ///@param _role the name of the role\r\n   ///@return bool\r\n  function hasRole(address _operator, uint _role) view public returns (bool){ //external / private ->internal?\r\n    return roles[_role].has(_operator);\r\n  }\r\n \r\n   \r\n   ///@dev add a role to an address\r\n   ///@param _operator address\r\n   ///@param _role the name of the role\r\n  function addAddressRole(address _operator, uint _role) public onlyOwner{ //external / private ->internal?\r\n//    assert(_role < numRole);\r\n      \r\n/*    RoleChoices c;\r\n      \r\n    if(_role == 0)\r\n        c = RoleChoices.setBasic;\r\n    if(_role == 1)\r\n        c = RoleChoices.setMiddle;\r\n    else\r\n        c = RoleChoices.setTop;\r\n */     \r\n     roles[_role].add(_operator);\r\n     emit RoleAdded(_operator, _role);\r\n  }\r\n \r\n   \r\n   ///@dev remove a role from an address\r\n   ///@param _operator address\r\n   ///@param _role the name of the role\r\n  function removeRole(address _operator, uint _role) public onlyOwner{ //external / private ->internal?\r\n      roles[_role].remove(_operator);\r\n      emit RoleRemoved(_operator, _role);\r\n  }\r\n   \r\n /*  /// @notice get contract type/role\r\n   /// @return return contract type/role\r\n  function getChoice() public view returns (RoleChoices) { //external / private\r\n        return choice;\r\n    }\r\n   \r\n   /// @notice get default role / contract type\r\n    /// @return return default role / contract type\r\n  function getDefaultRole() public pure returns (uint) { //external / private\r\n        return uint(defaultChoice);\r\n    }*/\r\n     \r\n    /// @notice can be used by a client contract to ensure that they've connected to this contract interface successfully\r\n    /// @return true, unconditionally  \r\n    function testConnection() public pure returns (bool) {\r\n        return true;  \r\n    }\r\n \r\n    /// @notice gets the address of this contract  \r\n    /// @return address  \r\n    function getAddress() public view returns (address) {\r\n        return address(this);\r\n    }\r\n \r\n \r\n}\r\n\r\n\r\n\r\n",
  "sourcePath": "/home/tompe/Scrivania/STAGE/UFFICIAL/rbac/contracts/RBAC.sol",
  "compiler": {
    "name": "solc",
    "version": "0.5.11+commit.c082d0b4.Emscripten.clang"
  },
  "schemaVersion": "3.0.15",
  "updatedAt": "2020-11-24T12:42:01.754Z",
  "devdoc": {
    "details": "Stores and provides setters and getters for roles and addresses.\r This RBAC method uses strings to key roles.\r",
    "methods": {
      "addAddressRole(address,uint256)": {
        "params": {
          "_role": "the name of the role"
        }
      },
      "getAddress()": {
        "return": "address  "
      },
      "hasRole(address,uint256)": {
        "return": "bool"
      },
      "removeRole(address,uint256)": {
        "params": {
          "_role": "the name of the role"
        }
      },
      "testConnection()": {
        "return": "true, unconditionally  "
      },
      "transferOwnership(address)": {
        "details": "Allows the current owner to transfer control of the contract to a newOwner.\r",
        "params": {
          "newOwner": "The address to transfer ownership to.\r"
        }
      }
    },
    "title": "RBAC (Role-Based Access Control)\r"
  },
  "userdoc": {
    "methods": {
      "checkRole(address,uint256)": {
        "notice": "reverts"
      }
    }
  }
}