{
  "contractName": "client",
  "abi": [
    {
      "constant": true,
      "inputs": [],
      "name": "owner",
      "outputs": [
        {
          "internalType": "address",
          "name": "",
          "type": "address"
        }
      ],
      "payable": false,
      "stateMutability": "view",
      "type": "function"
    },
    {
      "constant": false,
      "inputs": [
        {
          "internalType": "address",
          "name": "newOwner",
          "type": "address"
        }
      ],
      "name": "transferOwnership",
      "outputs": [],
      "payable": false,
      "stateMutability": "nonpayable",
      "type": "function"
    },
    {
      "anonymous": false,
      "inputs": [
        {
          "indexed": true,
          "internalType": "address",
          "name": "previousOwner",
          "type": "address"
        },
        {
          "indexed": true,
          "internalType": "address",
          "name": "newOwner",
          "type": "address"
        }
      ],
      "name": "OwnershipTransferred",
      "type": "event"
    },
    {
      "constant": true,
      "inputs": [],
      "name": "getOwner",
      "outputs": [
        {
          "internalType": "address",
          "name": "",
          "type": "address"
        }
      ],
      "payable": false,
      "stateMutability": "view",
      "type": "function"
    },
    {
      "constant": true,
      "inputs": [],
      "name": "getUser",
      "outputs": [
        {
          "internalType": "uint256",
          "name": "",
          "type": "uint256"
        }
      ],
      "payable": false,
      "stateMutability": "view",
      "type": "function"
    },
    {
      "constant": false,
      "inputs": [],
      "name": "resetTotalEnergyUsed",
      "outputs": [
        {
          "internalType": "uint256",
          "name": "",
          "type": "uint256"
        }
      ],
      "payable": false,
      "stateMutability": "nonpayable",
      "type": "function"
    },
    {
      "constant": false,
      "inputs": [],
      "name": "resetTotalEnergyProduced",
      "outputs": [
        {
          "internalType": "uint256",
          "name": "",
          "type": "uint256"
        }
      ],
      "payable": false,
      "stateMutability": "nonpayable",
      "type": "function"
    },
    {
      "constant": false,
      "inputs": [],
      "name": "resetTotalCommonEnergyUsed",
      "outputs": [
        {
          "internalType": "uint256",
          "name": "",
          "type": "uint256"
        }
      ],
      "payable": false,
      "stateMutability": "nonpayable",
      "type": "function"
    },
    {
      "constant": false,
      "inputs": [],
      "name": "getCRi",
      "outputs": [
        {
          "internalType": "uint256",
          "name": "",
          "type": "uint256"
        }
      ],
      "payable": false,
      "stateMutability": "nonpayable",
      "type": "function"
    },
    {
      "constant": true,
      "inputs": [
        {
          "internalType": "bytes32",
          "name": "id",
          "type": "bytes32"
        }
      ],
      "name": "showData",
      "outputs": [
        {
          "internalType": "string",
          "name": "value",
          "type": "string"
        },
        {
          "internalType": "string",
          "name": "ts",
          "type": "string"
        },
        {
          "internalType": "string",
          "name": "topic",
          "type": "string"
        }
      ],
      "payable": false,
      "stateMutability": "view",
      "type": "function"
    },
    {
      "constant": true,
      "inputs": [],
      "name": "getAllDataId",
      "outputs": [
        {
          "internalType": "bytes32[]",
          "name": "",
          "type": "bytes32[]"
        }
      ],
      "payable": false,
      "stateMutability": "view",
      "type": "function"
    },
    {
      "constant": false,
      "inputs": [
        {
          "internalType": "address",
          "name": "a",
          "type": "address"
        }
      ],
      "name": "addUser",
      "outputs": [
        {
          "internalType": "bool",
          "name": "",
          "type": "bool"
        }
      ],
      "payable": false,
      "stateMutability": "nonpayable",
      "type": "function"
    },
    {
      "constant": false,
      "inputs": [
        {
          "internalType": "string",
          "name": "value",
          "type": "string"
        },
        {
          "internalType": "uint256",
          "name": "energy",
          "type": "uint256"
        },
        {
          "internalType": "string",
          "name": "ts",
          "type": "string"
        },
        {
          "internalType": "string",
          "name": "topic",
          "type": "string"
        },
        {
          "internalType": "uint256",
          "name": "option",
          "type": "uint256"
        }
      ],
      "name": "addEnergyUsed",
      "outputs": [
        {
          "internalType": "bool",
          "name": "",
          "type": "bool"
        }
      ],
      "payable": false,
      "stateMutability": "nonpayable",
      "type": "function"
    },
    {
      "constant": true,
      "inputs": [
        {
          "internalType": "address",
          "name": "x",
          "type": "address"
        }
      ],
      "name": "showEnergyUsed",
      "outputs": [
        {
          "internalType": "uint256",
          "name": "",
          "type": "uint256"
        }
      ],
      "payable": false,
      "stateMutability": "view",
      "type": "function"
    },
    {
      "constant": false,
      "inputs": [
        {
          "internalType": "string",
          "name": "value",
          "type": "string"
        },
        {
          "internalType": "uint256",
          "name": "energy",
          "type": "uint256"
        },
        {
          "internalType": "string",
          "name": "ts",
          "type": "string"
        },
        {
          "internalType": "string",
          "name": "topic",
          "type": "string"
        },
        {
          "internalType": "uint256",
          "name": "option",
          "type": "uint256"
        }
      ],
      "name": "addEnergyProduced",
      "outputs": [
        {
          "internalType": "bool",
          "name": "",
          "type": "bool"
        }
      ],
      "payable": false,
      "stateMutability": "nonpayable",
      "type": "function"
    },
    {
      "constant": false,
      "inputs": [
        {
          "internalType": "uint256",
          "name": "energy",
          "type": "uint256"
        },
        {
          "internalType": "string",
          "name": "value",
          "type": "string"
        },
        {
          "internalType": "string",
          "name": "ts",
          "type": "string"
        },
        {
          "internalType": "string",
          "name": "topic",
          "type": "string"
        },
        {
          "internalType": "uint256",
          "name": "option",
          "type": "uint256"
        }
      ],
      "name": "addCommonEnergyUsed",
      "outputs": [
        {
          "internalType": "bool",
          "name": "",
          "type": "bool"
        }
      ],
      "payable": false,
      "stateMutability": "nonpayable",
      "type": "function"
    },
    {
      "constant": true,
      "inputs": [],
      "name": "getCommonEnergyUsed",
      "outputs": [
        {
          "internalType": "uint256",
          "name": "",
          "type": "uint256"
        }
      ],
      "payable": false,
      "stateMutability": "view",
      "type": "function"
    },
    {
      "constant": true,
      "inputs": [],
      "name": "getRipartitionCoeficent",
      "outputs": [
        {
          "internalType": "uint256",
          "name": "",
          "type": "uint256"
        }
      ],
      "payable": false,
      "stateMutability": "view",
      "type": "function"
    },
    {
      "constant": true,
      "inputs": [],
      "name": "showTotalEnergyUsed",
      "outputs": [
        {
          "internalType": "uint256",
          "name": "",
          "type": "uint256"
        }
      ],
      "payable": false,
      "stateMutability": "view",
      "type": "function"
    },
    {
      "constant": true,
      "inputs": [],
      "name": "showEnergyProduced",
      "outputs": [
        {
          "internalType": "uint256",
          "name": "",
          "type": "uint256"
        }
      ],
      "payable": false,
      "stateMutability": "view",
      "type": "function"
    },
    {
      "constant": false,
      "inputs": [
        {
          "internalType": "address",
          "name": "_dssAddress",
          "type": "address"
        }
      ],
      "name": "setdssAddress",
      "outputs": [
        {
          "internalType": "bool",
          "name": "",
          "type": "bool"
        }
      ],
      "payable": false,
      "stateMutability": "nonpayable",
      "type": "function"
    },
    {
      "constant": true,
      "inputs": [],
      "name": "getdssAddress",
      "outputs": [
        {
          "internalType": "address",
          "name": "",
          "type": "address"
        }
      ],
      "payable": false,
      "stateMutability": "view",
      "type": "function"
    },
    {
      "constant": true,
      "inputs": [],
      "name": "testConnection",
      "outputs": [
        {
          "internalType": "bool",
          "name": "",
          "type": "bool"
        }
      ],
      "payable": false,
      "stateMutability": "pure",
      "type": "function"
    },
    {
      "constant": true,
      "inputs": [],
      "name": "testdssConnection",
      "outputs": [
        {
          "internalType": "bool",
          "name": "",
          "type": "bool"
        }
      ],
      "payable": false,
      "stateMutability": "view",
      "type": "function"
    }
  ],
  "bytecode": "0x60806040526000600160006101000a81548173ffffffffffffffffffffffffffffffffffffffff021916908373ffffffffffffffffffffffffffffffffffffffff160217905550600160009054906101000a900473ffffffffffffffffffffffffffffffffffffffff16600260006101000a81548173ffffffffffffffffffffffffffffffffffffffff021916908373ffffffffffffffffffffffffffffffffffffffff160217905550336000806101000a81548173ffffffffffffffffffffffffffffffffffffffff021916908373ffffffffffffffffffffffffffffffffffffffff160217905550612a42806100f86000396000f3fe608060405234801561001057600080fd5b506004361061016a576000357c0100000000000000000000000000000000000000000000000000000000900480638da5cb5b116100e0578063db9334d811610099578063db9334d8146108da578063e5b56b26146108f8578063ebf7084a1461091a578063eeefdc4814610b2f578063f110a44914610b4d578063f2fde38b14610ccc5761016a565b80638da5cb5b146103e05780639147ae561461042a57806397450cd91461063f57806399d9ab7f1461065d5780639c5a49d9146106a7578063bd6b719b146108bc5761016a565b806363c6c56c1161013257806363c6c56c1461024757806363c84aa21461029f5780637262af9b146102fe5780637c46dce31461035a578063832880e714610378578063893d20e8146103965761016a565b80633412a15c1461016f578063373f9d58146101915780633e1f1d04146101af578063421b2d8b146101cd578063573c2a6314610229575b600080fd5b610177610d10565b604051808215151515815260200191505060405180910390f35b610199610d19565b6040518082815260200191505060405180910390f35b6101b7610e18565b6040518082815260200191505060405180910390f35b61020f600480360360208110156101e357600080fd5b81019080803573ffffffffffffffffffffffffffffffffffffffff169060200190929190505050610f17565b604051808215151515815260200191505060405180910390f35b6102316110a5565b6040518082815260200191505060405180910390f35b6102896004803603602081101561025d57600080fd5b81019080803573ffffffffffffffffffffffffffffffffffffffff1690602001909291905050506111a2565b6040518082815260200191505060405180910390f35b6102a761132e565b6040518080602001828103825283818151815260200191508051906020019060200280838360005b838110156102ea5780820151818401526020810190506102cf565b505050509050019250505060405180910390f35b6103406004803603602081101561031457600080fd5b81019080803573ffffffffffffffffffffffffffffffffffffffff1690602001909291905050506114c5565b604051808215151515815260200191505060405180910390f35b61036261168a565b6040518082815260200191505060405180910390f35b610380611789565b6040518082815260200191505060405180910390f35b61039e6118df565b604051808273ffffffffffffffffffffffffffffffffffffffff1673ffffffffffffffffffffffffffffffffffffffff16815260200191505060405180910390f35b6103e8611908565b604051808273ffffffffffffffffffffffffffffffffffffffff1673ffffffffffffffffffffffffffffffffffffffff16815260200191505060405180910390f35b610625600480360360a081101561044057600080fd5b810190808035906020019064010000000081111561045d57600080fd5b82018360208201111561046f57600080fd5b8035906020019184600183028401116401000000008311171561049157600080fd5b91908080601f016020809104026020016040519081016040528093929190818152602001838380828437600081840152601f19601f82011690508083019250505050505050919291929080359060200190929190803590602001906401000000008111156104fe57600080fd5b82018360208201111561051057600080fd5b8035906020019184600183028401116401000000008311171561053257600080fd5b91908080601f016020809104026020016040519081016040528093929190818152602001838380828437600081840152601f19601f8201169050808301925050505050505091929192908035906020019064010000000081111561059557600080fd5b8201836020820111156105a757600080fd5b803590602001918460018302840111640100000000831117156105c957600080fd5b91908080601f016020809104026020016040519081016040528093929190818152602001838380828437600081840152601f19601f8201169050808301925050505050505091929192908035906020019092919050505061192d565b604051808215151515815260200191505060405180910390f35b610647611b89565b6040518082815260200191505060405180910390f35b610665611c86565b604051808273ffffffffffffffffffffffffffffffffffffffff1673ffffffffffffffffffffffffffffffffffffffff16815260200191505060405180910390f35b6108a2600480360360a08110156106bd57600080fd5b8101908080359060200190929190803590602001906401000000008111156106e457600080fd5b8201836020820111156106f657600080fd5b8035906020019184600183028401116401000000008311171561071857600080fd5b91908080601f016020809104026020016040519081016040528093929190818152602001838380828437600081840152601f19601f8201169050808301925050505050505091929192908035906020019064010000000081111561077b57600080fd5b82018360208201111561078d57600080fd5b803590602001918460018302840111640100000000831117156107af57600080fd5b91908080601f016020809104026020016040519081016040528093929190818152602001838380828437600081840152601f19601f8201169050808301925050505050505091929192908035906020019064010000000081111561081257600080fd5b82018360208201111561082457600080fd5b8035906020019184600183028401116401000000008311171561084657600080fd5b91908080601f016020809104026020016040519081016040528093929190818152602001838380828437600081840152601f19601f82011690508083019250505050505050919291929080359060200190929190505050611cb0565b604051808215151515815260200191505060405180910390f35b6108c4611f0c565b6040518082815260200191505060405180910390f35b6108e261200b565b6040518082815260200191505060405180910390f35b610900612108565b604051808215151515815260200191505060405180910390f35b610b15600480360360a081101561093057600080fd5b810190808035906020019064010000000081111561094d57600080fd5b82018360208201111561095f57600080fd5b8035906020019184600183028401116401000000008311171561098157600080fd5b91908080601f016020809104026020016040519081016040528093929190818152602001838380828437600081840152601f19601f82011690508083019250505050505050919291929080359060200190929190803590602001906401000000008111156109ee57600080fd5b820183602082011115610a0057600080fd5b80359060200191846001830284011164010000000083111715610a2257600080fd5b91908080601f016020809104026020016040519081016040528093929190818152602001838380828437600081840152601f19601f82011690508083019250505050505050919291929080359060200190640100000000811115610a8557600080fd5b820183602082011115610a9757600080fd5b80359060200191846001830284011164010000000083111715610ab957600080fd5b91908080601f016020809104026020016040519081016040528093929190818152602001838380828437600081840152601f19601f820116905080830192505050505050509192919290803590602001909291905050506121ce565b604051808215151515815260200191505060405180910390f35b610b37612483565b6040518082815260200191505060405180910390f35b610b7960048036036020811015610b6357600080fd5b8101908080359060200190929190505050612580565b60405180806020018060200180602001848103845287818151815260200191508051906020019080838360005b83811015610bc1578082015181840152602081019050610ba6565b50505050905090810190601f168015610bee5780820380516001836020036101000a031916815260200191505b50848103835286818151815260200191508051906020019080838360005b83811015610c27578082015181840152602081019050610c0c565b50505050905090810190601f168015610c545780820380516001836020036101000a031916815260200191505b50848103825285818151815260200191508051906020019080838360005b83811015610c8d578082015181840152602081019050610c72565b50505050905090810190601f168015610cba5780820380516001836020036101000a031916815260200191505b50965050505050505060405180910390f35b610d0e60048036036020811015610ce257600080fd5b81019080803573ffffffffffffffffffffffffffffffffffffffff1690602001909291905050506128bc565b005b60006001905090565b6000600260009054906101000a900473ffffffffffffffffffffffffffffffffffffffff1673ffffffffffffffffffffffffffffffffffffffff1663112625b9336040518263ffffffff167c0100000000000000000000000000000000000000000000000000000000028152600401808273ffffffffffffffffffffffffffffffffffffffff1673ffffffffffffffffffffffffffffffffffffffff168152602001915050602060405180830381600087803b158015610dd857600080fd5b505af1158015610dec573d6000803e3d6000fd5b505050506040513d6020811015610e0257600080fd5b8101908080519060200190929190505050905090565b6000600260009054906101000a900473ffffffffffffffffffffffffffffffffffffffff1673ffffffffffffffffffffffffffffffffffffffff16634cbf0b70336040518263ffffffff167c0100000000000000000000000000000000000000000000000000000000028152600401808273ffffffffffffffffffffffffffffffffffffffff1673ffffffffffffffffffffffffffffffffffffffff168152602001915050602060405180830381600087803b158015610ed757600080fd5b505af1158015610eeb573d6000803e3d6000fd5b505050506040513d6020811015610f0157600080fd5b8101908080519060200190929190505050905090565b60008060009054906101000a900473ffffffffffffffffffffffffffffffffffffffff1673ffffffffffffffffffffffffffffffffffffffff163373ffffffffffffffffffffffffffffffffffffffff1614610f7257600080fd5b600260009054906101000a900473ffffffffffffffffffffffffffffffffffffffff1673ffffffffffffffffffffffffffffffffffffffff16638ca3b44833846040518363ffffffff167c0100000000000000000000000000000000000000000000000000000000028152600401808373ffffffffffffffffffffffffffffffffffffffff1673ffffffffffffffffffffffffffffffffffffffff1681526020018273ffffffffffffffffffffffffffffffffffffffff1673ffffffffffffffffffffffffffffffffffffffff16815260200192505050602060405180830381600087803b15801561106357600080fd5b505af1158015611077573d6000803e3d6000fd5b505050506040513d602081101561108d57600080fd5b81019080805190602001909291905050509050919050565b6000600260009054906101000a900473ffffffffffffffffffffffffffffffffffffffff1673ffffffffffffffffffffffffffffffffffffffff1663dc297e7d336040518263ffffffff167c0100000000000000000000000000000000000000000000000000000000028152600401808273ffffffffffffffffffffffffffffffffffffffff1673ffffffffffffffffffffffffffffffffffffffff16815260200191505060206040518083038186803b15801561116257600080fd5b505afa158015611176573d6000803e3d6000fd5b505050506040513d602081101561118c57600080fd5b8101908080519060200190929190505050905090565b60008060009054906101000a900473ffffffffffffffffffffffffffffffffffffffff1673ffffffffffffffffffffffffffffffffffffffff163373ffffffffffffffffffffffffffffffffffffffff16146111fd57600080fd5b600260009054906101000a900473ffffffffffffffffffffffffffffffffffffffff1673ffffffffffffffffffffffffffffffffffffffff1663eb3030ac33846040518363ffffffff167c0100000000000000000000000000000000000000000000000000000000028152600401808373ffffffffffffffffffffffffffffffffffffffff1673ffffffffffffffffffffffffffffffffffffffff1681526020018273ffffffffffffffffffffffffffffffffffffffff1673ffffffffffffffffffffffffffffffffffffffff1681526020019250505060206040518083038186803b1580156112ec57600080fd5b505afa158015611300573d6000803e3d6000fd5b505050506040513d602081101561131657600080fd5b81019080805190602001909291905050509050919050565b6060600260009054906101000a900473ffffffffffffffffffffffffffffffffffffffff1673ffffffffffffffffffffffffffffffffffffffff166367e737f7336040518263ffffffff167c0100000000000000000000000000000000000000000000000000000000028152600401808273ffffffffffffffffffffffffffffffffffffffff1673ffffffffffffffffffffffffffffffffffffffff16815260200191505060006040518083038186803b1580156113eb57600080fd5b505afa1580156113ff573d6000803e3d6000fd5b505050506040513d6000823e3d601f19601f82011682018060405250602081101561142957600080fd5b810190808051604051939291908464010000000082111561144957600080fd5b8382019150602082018581111561145f57600080fd5b825186602082028301116401000000008211171561147c57600080fd5b8083526020830192505050908051906020019060200280838360005b838110156114b3578082015181840152602081019050611498565b50505050905001604052505050905090565b60008060009054906101000a900473ffffffffffffffffffffffffffffffffffffffff1673ffffffffffffffffffffffffffffffffffffffff163373ffffffffffffffffffffffffffffffffffffffff161461152057600080fd5b81600160006101000a81548173ffffffffffffffffffffffffffffffffffffffff021916908373ffffffffffffffffffffffffffffffffffffffff160217905550600160009054906101000a900473ffffffffffffffffffffffffffffffffffffffff16600260006101000a81548173ffffffffffffffffffffffffffffffffffffffff021916908373ffffffffffffffffffffffffffffffffffffffff160217905550600260009054906101000a900473ffffffffffffffffffffffffffffffffffffffff1673ffffffffffffffffffffffffffffffffffffffff16633412a15c6040518163ffffffff167c010000000000000000000000000000000000000000000000000000000002815260040160206040518083038186803b15801561164857600080fd5b505afa15801561165c573d6000803e3d6000fd5b505050506040513d602081101561167257600080fd5b81019080805190602001909291905050509050919050565b6000600260009054906101000a900473ffffffffffffffffffffffffffffffffffffffff1673ffffffffffffffffffffffffffffffffffffffff1663f39bcfd4336040518263ffffffff167c0100000000000000000000000000000000000000000000000000000000028152600401808273ffffffffffffffffffffffffffffffffffffffff1673ffffffffffffffffffffffffffffffffffffffff168152602001915050602060405180830381600087803b15801561174957600080fd5b505af115801561175d573d6000803e3d6000fd5b505050506040513d602081101561177357600080fd5b8101908080519060200190929190505050905090565b60008060009054906101000a900473ffffffffffffffffffffffffffffffffffffffff1673ffffffffffffffffffffffffffffffffffffffff163373ffffffffffffffffffffffffffffffffffffffff16146117e457600080fd5b600260009054906101000a900473ffffffffffffffffffffffffffffffffffffffff1673ffffffffffffffffffffffffffffffffffffffff1663f0a4a8e8336040518263ffffffff167c0100000000000000000000000000000000000000000000000000000000028152600401808273ffffffffffffffffffffffffffffffffffffffff1673ffffffffffffffffffffffffffffffffffffffff16815260200191505060206040518083038186803b15801561189f57600080fd5b505afa1580156118b3573d6000803e3d6000fd5b505050506040513d60208110156118c957600080fd5b8101908080519060200190929190505050905090565b60008060009054906101000a900473ffffffffffffffffffffffffffffffffffffffff16905090565b6000809054906101000a900473ffffffffffffffffffffffffffffffffffffffff1681565b6000600260009054906101000a900473ffffffffffffffffffffffffffffffffffffffff1673ffffffffffffffffffffffffffffffffffffffff16637bcc95c43388888888886040518763ffffffff167c0100000000000000000000000000000000000000000000000000000000028152600401808773ffffffffffffffffffffffffffffffffffffffff1673ffffffffffffffffffffffffffffffffffffffff168152602001806020018681526020018060200180602001858152602001848103845289818151815260200191508051906020019080838360005b83811015611a24578082015181840152602081019050611a09565b50505050905090810190601f168015611a515780820380516001836020036101000a031916815260200191505b50848103835287818151815260200191508051906020019080838360005b83811015611a8a578082015181840152602081019050611a6f565b50505050905090810190601f168015611ab75780820380516001836020036101000a031916815260200191505b50848103825286818151815260200191508051906020019080838360005b83811015611af0578082015181840152602081019050611ad5565b50505050905090810190601f168015611b1d5780820380516001836020036101000a031916815260200191505b509950505050505050505050602060405180830381600087803b158015611b4357600080fd5b505af1158015611b57573d6000803e3d6000fd5b505050506040513d6020811015611b6d57600080fd5b8101908080519060200190929190505050905095945050505050565b6000600260009054906101000a900473ffffffffffffffffffffffffffffffffffffffff1673ffffffffffffffffffffffffffffffffffffffff166393f54f6a336040518263ffffffff167c0100000000000000000000000000000000000000000000000000000000028152600401808273ffffffffffffffffffffffffffffffffffffffff1673ffffffffffffffffffffffffffffffffffffffff16815260200191505060206040518083038186803b158015611c4657600080fd5b505afa158015611c5a573d6000803e3d6000fd5b505050506040513d6020811015611c7057600080fd5b8101908080519060200190929190505050905090565b6000600160009054906101000a900473ffffffffffffffffffffffffffffffffffffffff16905090565b6000600260009054906101000a900473ffffffffffffffffffffffffffffffffffffffff1673ffffffffffffffffffffffffffffffffffffffff166359e13a453388888888886040518763ffffffff167c0100000000000000000000000000000000000000000000000000000000028152600401808773ffffffffffffffffffffffffffffffffffffffff1673ffffffffffffffffffffffffffffffffffffffff168152602001868152602001806020018060200180602001858152602001848103845288818151815260200191508051906020019080838360005b83811015611da7578082015181840152602081019050611d8c565b50505050905090810190601f168015611dd45780820380516001836020036101000a031916815260200191505b50848103835287818151815260200191508051906020019080838360005b83811015611e0d578082015181840152602081019050611df2565b50505050905090810190601f168015611e3a5780820380516001836020036101000a031916815260200191505b50848103825286818151815260200191508051906020019080838360005b83811015611e73578082015181840152602081019050611e58565b50505050905090810190601f168015611ea05780820380516001836020036101000a031916815260200191505b509950505050505050505050602060405180830381600087803b158015611ec657600080fd5b505af1158015611eda573d6000803e3d6000fd5b505050506040513d6020811015611ef057600080fd5b8101908080519060200190929190505050905095945050505050565b6000600260009054906101000a900473ffffffffffffffffffffffffffffffffffffffff1673ffffffffffffffffffffffffffffffffffffffff16638714cb4f336040518263ffffffff167c0100000000000000000000000000000000000000000000000000000000028152600401808273ffffffffffffffffffffffffffffffffffffffff1673ffffffffffffffffffffffffffffffffffffffff168152602001915050602060405180830381600087803b158015611fcb57600080fd5b505af1158015611fdf573d6000803e3d6000fd5b505050506040513d6020811015611ff557600080fd5b8101908080519060200190929190505050905090565b6000600260009054906101000a900473ffffffffffffffffffffffffffffffffffffffff1673ffffffffffffffffffffffffffffffffffffffff16634bf5c97c336040518263ffffffff167c0100000000000000000000000000000000000000000000000000000000028152600401808273ffffffffffffffffffffffffffffffffffffffff1673ffffffffffffffffffffffffffffffffffffffff16815260200191505060206040518083038186803b1580156120c857600080fd5b505afa1580156120dc573d6000803e3d6000fd5b505050506040513d60208110156120f257600080fd5b8101908080519060200190929190505050905090565b6000600260009054906101000a900473ffffffffffffffffffffffffffffffffffffffff1673ffffffffffffffffffffffffffffffffffffffff16633412a15c6040518163ffffffff167c010000000000000000000000000000000000000000000000000000000002815260040160206040518083038186803b15801561218e57600080fd5b505afa1580156121a2573d6000803e3d6000fd5b505050506040513d60208110156121b857600080fd5b8101908080519060200190929190505050905090565b60008060009054906101000a900473ffffffffffffffffffffffffffffffffffffffff1673ffffffffffffffffffffffffffffffffffffffff163373ffffffffffffffffffffffffffffffffffffffff161461222957600080fd5b600260009054906101000a900473ffffffffffffffffffffffffffffffffffffffff1673ffffffffffffffffffffffffffffffffffffffff16634ca215ce3388888888886040518763ffffffff167c0100000000000000000000000000000000000000000000000000000000028152600401808773ffffffffffffffffffffffffffffffffffffffff1673ffffffffffffffffffffffffffffffffffffffff168152602001806020018681526020018060200180602001858152602001848103845289818151815260200191508051906020019080838360005b8381101561231e578082015181840152602081019050612303565b50505050905090810190601f16801561234b5780820380516001836020036101000a031916815260200191505b50848103835287818151815260200191508051906020019080838360005b83811015612384578082015181840152602081019050612369565b50505050905090810190601f1680156123b15780820380516001836020036101000a031916815260200191505b50848103825286818151815260200191508051906020019080838360005b838110156123ea5780820151818401526020810190506123cf565b50505050905090810190601f1680156124175780820380516001836020036101000a031916815260200191505b509950505050505050505050602060405180830381600087803b15801561243d57600080fd5b505af1158015612451573d6000803e3d6000fd5b505050506040513d602081101561246757600080fd5b8101908080519060200190929190505050905095945050505050565b6000600260009054906101000a900473ffffffffffffffffffffffffffffffffffffffff1673ffffffffffffffffffffffffffffffffffffffff1663061df60d336040518263ffffffff167c0100000000000000000000000000000000000000000000000000000000028152600401808273ffffffffffffffffffffffffffffffffffffffff1673ffffffffffffffffffffffffffffffffffffffff16815260200191505060206040518083038186803b15801561254057600080fd5b505afa158015612554573d6000803e3d6000fd5b505050506040513d602081101561256a57600080fd5b8101908080519060200190929190505050905090565b6060806060600260009054906101000a900473ffffffffffffffffffffffffffffffffffffffff1673ffffffffffffffffffffffffffffffffffffffff166379f548c833866040518363ffffffff167c0100000000000000000000000000000000000000000000000000000000028152600401808373ffffffffffffffffffffffffffffffffffffffff1673ffffffffffffffffffffffffffffffffffffffff1681526020018281526020019250505060006040518083038186803b15801561264857600080fd5b505afa15801561265c573d6000803e3d6000fd5b505050506040513d6000823e3d601f19601f82011682018060405250606081101561268657600080fd5b81019080805160405193929190846401000000008211156126a657600080fd5b838201915060208201858111156126bc57600080fd5b82518660018202830111640100000000821117156126d957600080fd5b8083526020830192505050908051906020019080838360005b8381101561270d5780820151818401526020810190506126f2565b50505050905090810190601f16801561273a5780820380516001836020036101000a031916815260200191505b506040526020018051604051939291908464010000000082111561275d57600080fd5b8382019150602082018581111561277357600080fd5b825186600182028301116401000000008211171561279057600080fd5b8083526020830192505050908051906020019080838360005b838110156127c45780820151818401526020810190506127a9565b50505050905090810190601f1680156127f15780820380516001836020036101000a031916815260200191505b506040526020018051604051939291908464010000000082111561281457600080fd5b8382019150602082018581111561282a57600080fd5b825186600182028301116401000000008211171561284757600080fd5b8083526020830192505050908051906020019080838360005b8381101561287b578082015181840152602081019050612860565b50505050905090810190601f1680156128a85780820380516001836020036101000a031916815260200191505b506040525050509250925092509193909250565b6000809054906101000a900473ffffffffffffffffffffffffffffffffffffffff1673ffffffffffffffffffffffffffffffffffffffff163373ffffffffffffffffffffffffffffffffffffffff161461291557600080fd5b600073ffffffffffffffffffffffffffffffffffffffff168173ffffffffffffffffffffffffffffffffffffffff16141561294f57600080fd5b8073ffffffffffffffffffffffffffffffffffffffff166000809054906101000a900473ffffffffffffffffffffffffffffffffffffffff1673ffffffffffffffffffffffffffffffffffffffff167f8be0079c531659141344cd1fd0a4f28419497f9722a3daafe3b4186f6b6457e060405160405180910390a3806000806101000a81548173ffffffffffffffffffffffffffffffffffffffff021916908373ffffffffffffffffffffffffffffffffffffffff1602179055505056fea265627a7a7231582080812e206a8a8e9a85d5f784e45624c29a3cc2d78e7862a304e042636a2cd7d864736f6c634300050b0032",
  "source": "pragma solidity >=0.4.22 <0.6.0;\r\n \r\nimport \"./dssInterface.sol\";\r\nimport \"./Ownable.sol\";\r\n \r\n \r\n/// @title Client\r\n/// @author Tommaso Pessina\r\n/// @notice Client is who use energy.\r\ncontract client is Ownable {\r\n    \r\n    //ENERGY is integer value -> Multuplied by 100\r\n    //VALUE is the string value of energy\r\n     \r\n    /// @notice get contract owner\r\n    /// @return the address of contract owner\r\n    function getOwner() public view returns(address){\r\n        return owner;\r\n    }\r\n \r\n    //data dss  \r\n    address internal dssAddr = 0x0000000000000000000000000000000000000000;\r\n    dssInterface internal dss = dssInterface(dssAddr);  \r\n    \r\n    //Get numer of user that is equals to how many electric meter (or family in condominium)\r\n    //It must has the correct role for do that\r\n    function getUser() public onlyOwner view returns(uint){\r\n        return dss.getNumUser(msg.sender);\r\n    }\r\n    \r\n    //Require admin permission\r\n    function resetTotalEnergyUsed() public returns(uint){\r\n        return dss.resetTotalEnergyUsed(msg.sender);\r\n    }\r\n    \r\n    //Require admin permission\r\n    function resetTotalEnergyProduced() public returns(uint){\r\n        return dss.resetTotalEnergyProduced(msg.sender);\r\n    }\r\n    \r\n    //Require admin permission\r\n    function resetTotalCommonEnergyUsed() public returns(uint){\r\n        return dss.resetTotalCommonEnergyUsed(msg.sender);\r\n    }\r\n    \r\n    //Require admin permission\r\n    function getCRi() public returns (uint){\r\n        return dss.getCRi(msg.sender); //the result is multiplied by 100 for not lose the decimal\r\n    }\r\n    \r\n    /*function addData(string memory value, uint ts, string memory topic, uint option) public returns(bytes32){\r\n        return dss.addData(msg.sender, value, ts, topic, option);\r\n    }*/\r\n    \r\n    //Show data's details given the id. Require get permission\r\n    function showData(bytes32 id) public view returns(string memory value, string memory ts, string memory topic){\r\n        return  dss.showData(msg.sender,  id);\r\n    }\r\n    \r\n    //Get all the dataID for getting the single value. Require get permission\r\n    function getAllDataId() public view returns (bytes32[] memory) {\r\n        return dss.getAllData(msg.sender); \r\n    }\r\n    \r\n    //Add a user in the system. Each electric meter has a contract\r\n    //It must has the correct role for do that\r\n    function addUser(address a) public onlyOwner returns (bool){\r\n        return dss.addUser(msg.sender,a);\r\n    }\r\n    \r\n    //Add the energy used by the electric meter that call the function. \r\n    //It must has the correct role for do that\r\n    function addEnergyUsed(string memory value,uint energy, string memory ts, string memory topic, uint option) public onlyOwner returns(bool){\r\n        return dss.addEnergyUsed(msg.sender,value,energy,ts,topic,option);\r\n    }\r\n\r\n    //Show the energy used by a given electric meter address.\r\n    //It must has the correct role for do that. Generally done by the supplier\r\n    function showEnergyUsed(address x) public onlyOwner view returns (uint){\r\n        return dss.showEnergyUsed(msg.sender,x);\r\n    }\r\n    \r\n    //Add the energy produced.\r\n    //It must has the correct role for do that. Generally done by the electric meter of the energy producuer.\r\n    function addEnergyProduced(string memory value,uint energy, string memory ts, string memory topic, uint option) public returns(bool){\r\n        return dss.addEnergyProduced(msg.sender,value,energy,ts,topic,option);\r\n    }\r\n    \r\n    //Add the energy used by the common utilities.\r\n    //It must has the correct role for do that. Generally done by the electric meter of the common utilities.\r\n    function addCommonEnergyUsed(uint energy,string memory value, string memory ts, string memory topic, uint option) public returns(bool){\r\n        return dss.addCommonEnergyUsed(msg.sender,energy,value,ts,topic,option);\r\n    }\r\n    \r\n    //Get the energy used by the common utilities.\r\n    //It must has the correct role for do that.\r\n    function getCommonEnergyUsed() public view returns(uint){\r\n        return dss.getCommonEnergyUsed(msg.sender);\r\n    }\r\n    \r\n    //Get the ripartition of the common utilities (according to the number of user)\r\n    //It must has the correct role for do that.\r\n    function getRipartitionCoeficent() public view returns(uint){\r\n        return dss.getRipartitionCoeficent(msg.sender);\r\n    }\r\n    \r\n    //Show the total energy used by the condominium.\r\n    //It must has the correct role for do that.\r\n    function showTotalEnergyUsed() public view returns(uint){\r\n        return dss.showTotalEnergyUsed(msg.sender);\r\n    }\r\n    \r\n    //Show all the energy produced progressively.\r\n    //It must has the correct role for do that.\r\n    function showEnergyProduced() public view returns(uint){\r\n        return dss.showEnergyProduced(msg.sender);\r\n    }\r\n \r\n    /// @notice sets the address of the dss contract to use  \r\n    /// @dev setting a wrong address may result in false return value, or error  \r\n    /// @param _dssAddress the address of the dss  \r\n    /// @return true if connection to the new dss address was successful\r\n    function setdssAddress(address _dssAddress) public onlyOwner returns (bool) { //private\r\n        dssAddr = _dssAddress;\r\n        dss = dssInterface(dssAddr);  \r\n        return dss.testConnection();\r\n    }\r\n \r\n    /// @notice gets the address of the dss being used  \r\n    /// @return the address of the currently set dss  \r\n    function getdssAddress() external view returns (address) { //private\r\n        return dssAddr;\r\n    }\r\n \r\n    /// @notice can be used by a client contract to ensure that they've connected to this contract interface successfully\r\n    /// @return true, unconditionally  \r\n    function testConnection() public pure returns (bool) {\r\n        return true;  \r\n    }\r\n \r\n    /// @notice for testing; tests that the dss is callable  \r\n    /// @return true if connection successful  \r\n    function testdssConnection() public view returns (bool) {\r\n        return dss.testConnection();  \r\n    }\r\n     \r\n}\r\n\r\n\r\n\r\n",
  "sourcePath": "/home/tompe/Scrivania/STAGE/UFFICIAL/client/contracts/client.sol",
  "compiler": {
    "name": "solc",
    "version": "0.5.11+commit.c082d0b4.Emscripten.clang"
  },
  "schemaVersion": "3.0.15",
  "updatedAt": "2020-11-24T12:40:55.668Z",
  "devdoc": {
    "methods": {
      "getOwner()": {
        "return": "the address of contract owner"
      },
      "getdssAddress()": {
        "return": "the address of the currently set dss  "
      },
      "setdssAddress(address)": {
        "return": "true if connection to the new dss address was successful"
      },
      "testConnection()": {
        "return": "true, unconditionally  "
      },
      "testdssConnection()": {
        "return": "true if connection successful  "
      },
      "transferOwnership(address)": {
        "details": "Allows the current owner to transfer control of the contract to a newOwner.\r",
        "params": {
          "newOwner": "The address to transfer ownership to.\r"
        }
      }
    }
  },
  "userdoc": {
    "methods": {},
    "notice": "Client is who use energy."
  }
}