{
  "contractName": "dss",
  "abi": [
    {
      "constant": true,
      "inputs": [],
      "name": "owner",
      "outputs": [
        {
          "internalType": "address",
          "name": "",
          "type": "address"
        }
      ],
      "payable": false,
      "stateMutability": "view",
      "type": "function"
    },
    {
      "constant": false,
      "inputs": [
        {
          "internalType": "address",
          "name": "newOwner",
          "type": "address"
        }
      ],
      "name": "transferOwnership",
      "outputs": [],
      "payable": false,
      "stateMutability": "nonpayable",
      "type": "function"
    },
    {
      "anonymous": false,
      "inputs": [
        {
          "indexed": true,
          "internalType": "address",
          "name": "previousOwner",
          "type": "address"
        },
        {
          "indexed": true,
          "internalType": "address",
          "name": "newOwner",
          "type": "address"
        }
      ],
      "name": "OwnershipTransferred",
      "type": "event"
    },
    {
      "constant": false,
      "inputs": [
        {
          "internalType": "address",
          "name": "x",
          "type": "address"
        }
      ],
      "name": "resetTotalEnergyUsed",
      "outputs": [
        {
          "internalType": "uint256",
          "name": "",
          "type": "uint256"
        }
      ],
      "payable": false,
      "stateMutability": "nonpayable",
      "type": "function"
    },
    {
      "constant": false,
      "inputs": [
        {
          "internalType": "address",
          "name": "x",
          "type": "address"
        }
      ],
      "name": "resetTotalEnergyProduced",
      "outputs": [
        {
          "internalType": "uint256",
          "name": "",
          "type": "uint256"
        }
      ],
      "payable": false,
      "stateMutability": "nonpayable",
      "type": "function"
    },
    {
      "constant": false,
      "inputs": [
        {
          "internalType": "address",
          "name": "x",
          "type": "address"
        }
      ],
      "name": "resetTotalCommonEnergyUsed",
      "outputs": [
        {
          "internalType": "uint256",
          "name": "",
          "type": "uint256"
        }
      ],
      "payable": false,
      "stateMutability": "nonpayable",
      "type": "function"
    },
    {
      "constant": true,
      "inputs": [
        {
          "internalType": "address",
          "name": "x",
          "type": "address"
        }
      ],
      "name": "getNumUser",
      "outputs": [
        {
          "internalType": "uint256",
          "name": "",
          "type": "uint256"
        }
      ],
      "payable": false,
      "stateMutability": "view",
      "type": "function"
    },
    {
      "constant": false,
      "inputs": [
        {
          "internalType": "address",
          "name": "caller",
          "type": "address"
        }
      ],
      "name": "getCRi",
      "outputs": [
        {
          "internalType": "uint256",
          "name": "",
          "type": "uint256"
        }
      ],
      "payable": false,
      "stateMutability": "nonpayable",
      "type": "function"
    },
    {
      "constant": true,
      "inputs": [
        {
          "internalType": "uint256",
          "name": "_i",
          "type": "uint256"
        }
      ],
      "name": "uint2str",
      "outputs": [
        {
          "internalType": "string",
          "name": "_uintAsString",
          "type": "string"
        }
      ],
      "payable": false,
      "stateMutability": "pure",
      "type": "function"
    },
    {
      "constant": false,
      "inputs": [
        {
          "internalType": "address",
          "name": "caller",
          "type": "address"
        },
        {
          "internalType": "address",
          "name": "userIN",
          "type": "address"
        }
      ],
      "name": "addUser",
      "outputs": [
        {
          "internalType": "bool",
          "name": "",
          "type": "bool"
        }
      ],
      "payable": false,
      "stateMutability": "nonpayable",
      "type": "function"
    },
    {
      "constant": false,
      "inputs": [
        {
          "internalType": "address",
          "name": "x",
          "type": "address"
        },
        {
          "internalType": "string",
          "name": "value",
          "type": "string"
        },
        {
          "internalType": "uint256",
          "name": "energy",
          "type": "uint256"
        },
        {
          "internalType": "string",
          "name": "ts",
          "type": "string"
        },
        {
          "internalType": "string",
          "name": "topic",
          "type": "string"
        },
        {
          "internalType": "uint256",
          "name": "option",
          "type": "uint256"
        }
      ],
      "name": "addEnergyProduced",
      "outputs": [
        {
          "internalType": "bool",
          "name": "",
          "type": "bool"
        }
      ],
      "payable": false,
      "stateMutability": "nonpayable",
      "type": "function"
    },
    {
      "constant": false,
      "inputs": [
        {
          "internalType": "address",
          "name": "x",
          "type": "address"
        },
        {
          "internalType": "uint256",
          "name": "energy",
          "type": "uint256"
        },
        {
          "internalType": "string",
          "name": "value",
          "type": "string"
        },
        {
          "internalType": "string",
          "name": "ts",
          "type": "string"
        },
        {
          "internalType": "string",
          "name": "topic",
          "type": "string"
        },
        {
          "internalType": "uint256",
          "name": "option",
          "type": "uint256"
        }
      ],
      "name": "addCommonEnergyUsed",
      "outputs": [
        {
          "internalType": "bool",
          "name": "",
          "type": "bool"
        }
      ],
      "payable": false,
      "stateMutability": "nonpayable",
      "type": "function"
    },
    {
      "constant": true,
      "inputs": [
        {
          "internalType": "address",
          "name": "x",
          "type": "address"
        }
      ],
      "name": "getCommonEnergyUsed",
      "outputs": [
        {
          "internalType": "uint256",
          "name": "",
          "type": "uint256"
        }
      ],
      "payable": false,
      "stateMutability": "view",
      "type": "function"
    },
    {
      "constant": true,
      "inputs": [
        {
          "internalType": "address",
          "name": "x",
          "type": "address"
        }
      ],
      "name": "getRipartitionCoeficent",
      "outputs": [
        {
          "internalType": "uint256",
          "name": "",
          "type": "uint256"
        }
      ],
      "payable": false,
      "stateMutability": "view",
      "type": "function"
    },
    {
      "constant": false,
      "inputs": [
        {
          "internalType": "address",
          "name": "x",
          "type": "address"
        },
        {
          "internalType": "string",
          "name": "value",
          "type": "string"
        },
        {
          "internalType": "uint256",
          "name": "energy",
          "type": "uint256"
        },
        {
          "internalType": "string",
          "name": "ts",
          "type": "string"
        },
        {
          "internalType": "string",
          "name": "topic",
          "type": "string"
        },
        {
          "internalType": "uint256",
          "name": "option",
          "type": "uint256"
        }
      ],
      "name": "addEnergyUsed",
      "outputs": [
        {
          "internalType": "bool",
          "name": "",
          "type": "bool"
        }
      ],
      "payable": false,
      "stateMutability": "nonpayable",
      "type": "function"
    },
    {
      "constant": true,
      "inputs": [
        {
          "internalType": "address",
          "name": "x",
          "type": "address"
        }
      ],
      "name": "getAllData",
      "outputs": [
        {
          "internalType": "bytes32[]",
          "name": "",
          "type": "bytes32[]"
        }
      ],
      "payable": false,
      "stateMutability": "view",
      "type": "function"
    },
    {
      "constant": true,
      "inputs": [
        {
          "internalType": "address",
          "name": "caller",
          "type": "address"
        },
        {
          "internalType": "bytes32",
          "name": "id",
          "type": "bytes32"
        }
      ],
      "name": "showData",
      "outputs": [
        {
          "internalType": "string",
          "name": "value",
          "type": "string"
        },
        {
          "internalType": "string",
          "name": "ts",
          "type": "string"
        },
        {
          "internalType": "string",
          "name": "topic",
          "type": "string"
        }
      ],
      "payable": false,
      "stateMutability": "view",
      "type": "function"
    },
    {
      "constant": true,
      "inputs": [
        {
          "internalType": "address",
          "name": "caller",
          "type": "address"
        }
      ],
      "name": "showTotalEnergyUsed",
      "outputs": [
        {
          "internalType": "uint256",
          "name": "",
          "type": "uint256"
        }
      ],
      "payable": false,
      "stateMutability": "view",
      "type": "function"
    },
    {
      "constant": true,
      "inputs": [
        {
          "internalType": "address",
          "name": "caller",
          "type": "address"
        }
      ],
      "name": "showEnergyProduced",
      "outputs": [
        {
          "internalType": "uint256",
          "name": "",
          "type": "uint256"
        }
      ],
      "payable": false,
      "stateMutability": "view",
      "type": "function"
    },
    {
      "constant": false,
      "inputs": [
        {
          "internalType": "address",
          "name": "_rbacAddress",
          "type": "address"
        }
      ],
      "name": "setRBACaddress",
      "outputs": [
        {
          "internalType": "bool",
          "name": "",
          "type": "bool"
        }
      ],
      "payable": false,
      "stateMutability": "nonpayable",
      "type": "function"
    },
    {
      "constant": true,
      "inputs": [],
      "name": "getRBACaddress",
      "outputs": [
        {
          "internalType": "address",
          "name": "",
          "type": "address"
        }
      ],
      "payable": false,
      "stateMutability": "view",
      "type": "function"
    },
    {
      "constant": true,
      "inputs": [],
      "name": "testRBACconnection",
      "outputs": [
        {
          "internalType": "bool",
          "name": "",
          "type": "bool"
        }
      ],
      "payable": false,
      "stateMutability": "view",
      "type": "function"
    },
    {
      "constant": true,
      "inputs": [
        {
          "internalType": "bytes32",
          "name": "_dataId",
          "type": "bytes32"
        }
      ],
      "name": "dataExists",
      "outputs": [
        {
          "internalType": "bool",
          "name": "",
          "type": "bool"
        }
      ],
      "payable": false,
      "stateMutability": "view",
      "type": "function"
    },
    {
      "constant": true,
      "inputs": [],
      "name": "testConnection",
      "outputs": [
        {
          "internalType": "bool",
          "name": "",
          "type": "bool"
        }
      ],
      "payable": false,
      "stateMutability": "pure",
      "type": "function"
    },
    {
      "constant": true,
      "inputs": [],
      "name": "getAddress",
      "outputs": [
        {
          "internalType": "address",
          "name": "",
          "type": "address"
        }
      ],
      "payable": false,
      "stateMutability": "view",
      "type": "function"
    }
  ],
  "bytecode": "0x6080604052600060055560006006556000600755600060085560006009556000600a60006101000a81548173ffffffffffffffffffffffffffffffffffffffff021916908373ffffffffffffffffffffffffffffffffffffffff160217905550600a60009054906101000a900473ffffffffffffffffffffffffffffffffffffffff16600b60006101000a81548173ffffffffffffffffffffffffffffffffffffffff021916908373ffffffffffffffffffffffffffffffffffffffff160217905550336000806101000a81548173ffffffffffffffffffffffffffffffffffffffff021916908373ffffffffffffffffffffffffffffffffffffffff1602179055506130a4806101116000396000f3fe608060405234801561001057600080fd5b5060043610610175576000357c0100000000000000000000000000000000000000000000000000000000900480637bcc95c4116100e0578063d80d1ce711610099578063d80d1ce714610e45578063dc297e7d14610ea1578063f0a4a8e814610ef9578063f2fde38b14610f51578063f39bcfd414610f95578063f76f950e14610fed57610175565b80637bcc95c414610a505780638714cb4f14610c855780638ca3b44814610cdd5780638da5cb5b14610d5957806393f54f6a14610da35780639a64d2d414610dfb57610175565b80634bf5c97c116101325780634bf5c97c146102fe5780634ca215ce146103565780634cbf0b701461058b57806359e13a45146105e357806367e737f71461081857806379f548c8146108b157610175565b8063061df60d1461017a578063112625b9146101d25780631fdc4e731461022a5780633412a15c1461027057806338cc48311461029257806341bd636e146102dc575b600080fd5b6101bc6004803603602081101561019057600080fd5b81019080803573ffffffffffffffffffffffffffffffffffffffff169060200190929190505050611094565b6040518082815260200191505060405180910390f35b610214600480360360208110156101e857600080fd5b81019080803573ffffffffffffffffffffffffffffffffffffffff1690602001909291905050506111a8565b6040518082815260200191505060405180910390f35b6102566004803603602081101561024057600080fd5b81019080803590602001909291905050506112cb565b604051808215151515815260200191505060405180910390f35b610278611308565b604051808215151515815260200191505060405180910390f35b61029a611311565b604051808273ffffffffffffffffffffffffffffffffffffffff1673ffffffffffffffffffffffffffffffffffffffff16815260200191505060405180910390f35b6102e4611319565b604051808215151515815260200191505060405180910390f35b6103406004803603602081101561031457600080fd5b81019080803573ffffffffffffffffffffffffffffffffffffffff1690602001909291905050506113df565b6040518082815260200191505060405180910390f35b610571600480360360c081101561036c57600080fd5b81019080803573ffffffffffffffffffffffffffffffffffffffff169060200190929190803590602001906401000000008111156103a957600080fd5b8201836020820111156103bb57600080fd5b803590602001918460018302840111640100000000831117156103dd57600080fd5b91908080601f016020809104026020016040519081016040528093929190818152602001838380828437600081840152601f19601f820116905080830192505050505050509192919290803590602001909291908035906020019064010000000081111561044a57600080fd5b82018360208201111561045c57600080fd5b8035906020019184600183028401116401000000008311171561047e57600080fd5b91908080601f016020809104026020016040519081016040528093929190818152602001838380828437600081840152601f19601f820116905080830192505050505050509192919290803590602001906401000000008111156104e157600080fd5b8201836020820111156104f357600080fd5b8035906020019184600183028401116401000000008311171561051557600080fd5b91908080601f016020809104026020016040519081016040528093929190818152602001838380828437600081840152601f19601f820116905080830192505050505050509192919290803590602001909291905050506114f3565b604051808215151515815260200191505060405180910390f35b6105cd600480360360208110156105a157600080fd5b81019080803573ffffffffffffffffffffffffffffffffffffffff169060200190929190505050611640565b6040518082815260200191505060405180910390f35b6107fe600480360360c08110156105f957600080fd5b81019080803573ffffffffffffffffffffffffffffffffffffffff169060200190929190803590602001909291908035906020019064010000000081111561064057600080fd5b82018360208201111561065257600080fd5b8035906020019184600183028401116401000000008311171561067457600080fd5b91908080601f016020809104026020016040519081016040528093929190818152602001838380828437600081840152601f19601f820116905080830192505050505050509192919290803590602001906401000000008111156106d757600080fd5b8201836020820111156106e957600080fd5b8035906020019184600183028401116401000000008311171561070b57600080fd5b91908080601f016020809104026020016040519081016040528093929190818152602001838380828437600081840152601f19601f8201169050808301925050505050505091929192908035906020019064010000000081111561076e57600080fd5b82018360208201111561078057600080fd5b803590602001918460018302840111640100000000831117156107a257600080fd5b91908080601f016020809104026020016040519081016040528093929190818152602001838380828437600081840152601f19601f82011690508083019250505050505050919291929080359060200190929190505050611763565b604051808215151515815260200191505060405180910390f35b61085a6004803603602081101561082e57600080fd5b81019080803573ffffffffffffffffffffffffffffffffffffffff1690602001909291905050506118b3565b6040518080602001828103825283818151815260200191508051906020019060200280838360005b8381101561089d578082015181840152602081019050610882565b505050509050019250505060405180910390f35b6108fd600480360360408110156108c757600080fd5b81019080803573ffffffffffffffffffffffffffffffffffffffff16906020019092919080359060200190929190505050611a73565b60405180806020018060200180602001848103845287818151815260200191508051906020019080838360005b8381101561094557808201518184015260208101905061092a565b50505050905090810190601f1680156109725780820380516001836020036101000a031916815260200191505b50848103835286818151815260200191508051906020019080838360005b838110156109ab578082015181840152602081019050610990565b50505050905090810190601f1680156109d85780820380516001836020036101000a031916815260200191505b50848103825285818151815260200191508051906020019080838360005b83811015610a115780820151818401526020810190506109f6565b50505050905090810190601f168015610a3e5780820380516001836020036101000a031916815260200191505b50965050505050505060405180910390f35b610c6b600480360360c0811015610a6657600080fd5b81019080803573ffffffffffffffffffffffffffffffffffffffff16906020019092919080359060200190640100000000811115610aa357600080fd5b820183602082011115610ab557600080fd5b80359060200191846001830284011164010000000083111715610ad757600080fd5b91908080601f016020809104026020016040519081016040528093929190818152602001838380828437600081840152601f19601f8201169050808301925050505050505091929192908035906020019092919080359060200190640100000000811115610b4457600080fd5b820183602082011115610b5657600080fd5b80359060200191846001830284011164010000000083111715610b7857600080fd5b91908080601f016020809104026020016040519081016040528093929190818152602001838380828437600081840152601f19601f82011690508083019250505050505050919291929080359060200190640100000000811115610bdb57600080fd5b820183602082011115610bed57600080fd5b80359060200191846001830284011164010000000083111715610c0f57600080fd5b91908080601f016020809104026020016040519081016040528093929190818152602001838380828437600081840152601f19601f82011690508083019250505050505050919291929080359060200190929190505050611eae565b604051808215151515815260200191505060405180910390f35b610cc760048036036020811015610c9b57600080fd5b81019080803573ffffffffffffffffffffffffffffffffffffffff169060200190929190505050611fee565b6040518082815260200191505060405180910390f35b610d3f60048036036040811015610cf357600080fd5b81019080803573ffffffffffffffffffffffffffffffffffffffff169060200190929190803573ffffffffffffffffffffffffffffffffffffffff169060200190929190505050612111565b604051808215151515815260200191505060405180910390f35b610d61612354565b604051808273ffffffffffffffffffffffffffffffffffffffff1673ffffffffffffffffffffffffffffffffffffffff16815260200191505060405180910390f35b610de560048036036020811015610db957600080fd5b81019080803573ffffffffffffffffffffffffffffffffffffffff169060200190929190505050612379565b6040518082815260200191505060405180910390f35b610e036124b0565b604051808273ffffffffffffffffffffffffffffffffffffffff1673ffffffffffffffffffffffffffffffffffffffff16815260200191505060405180910390f35b610e8760048036036020811015610e5b57600080fd5b81019080803573ffffffffffffffffffffffffffffffffffffffff1690602001909291905050506124da565b604051808215151515815260200191505060405180910390f35b610ee360048036036020811015610eb757600080fd5b81019080803573ffffffffffffffffffffffffffffffffffffffff16906020019092919050505061269f565b6040518082815260200191505060405180910390f35b610f3b60048036036020811015610f0f57600080fd5b81019080803573ffffffffffffffffffffffffffffffffffffffff1690602001909291905050506127b3565b6040518082815260200191505060405180910390f35b610f9360048036036020811015610f6757600080fd5b81019080803573ffffffffffffffffffffffffffffffffffffffff1690602001909291905050506128cd565b005b610fd760048036036020811015610fab57600080fd5b81019080803573ffffffffffffffffffffffffffffffffffffffff169060200190929190505050612a1e565b6040518082815260200191505060405180910390f35b6110196004803603602081101561100357600080fd5b8101908080359060200190929190505050612be3565b6040518080602001828103825283818151815260200191508051906020019080838360005b8381101561105957808201518184015260208101905061103e565b50505050905090810190601f1680156110865780820380516001836020036101000a031916815260200191505b509250505060405180910390f35b6000600b60009054906101000a900473ffffffffffffffffffffffffffffffffffffffff1673ffffffffffffffffffffffffffffffffffffffff16635c97f4a28360026040518363ffffffff167c0100000000000000000000000000000000000000000000000000000000028152600401808373ffffffffffffffffffffffffffffffffffffffff1673ffffffffffffffffffffffffffffffffffffffff1681526020018281526020019250505060206040518083038186803b15801561115a57600080fd5b505afa15801561116e573d6000803e3d6000fd5b505050506040513d602081101561118457600080fd5b810190808051906020019092919050505061119e57600080fd5b6007549050919050565b6000600b60009054906101000a900473ffffffffffffffffffffffffffffffffffffffff1673ffffffffffffffffffffffffffffffffffffffff16635c97f4a28360036040518363ffffffff167c0100000000000000000000000000000000000000000000000000000000028152600401808373ffffffffffffffffffffffffffffffffffffffff1673ffffffffffffffffffffffffffffffffffffffff1681526020018281526020019250505060206040518083038186803b15801561126e57600080fd5b505afa158015611282573d6000803e3d6000fd5b505050506040513d602081101561129857600080fd5b8101908080519060200190929190505050156112c057600060078190555060075490506112c6565b60075490505b919050565b60008060018054905014156112e35760009050611303565b600060036000848152602001908152602001600020549050600081119150505b919050565b60006001905090565b600030905090565b6000600b60009054906101000a900473ffffffffffffffffffffffffffffffffffffffff1673ffffffffffffffffffffffffffffffffffffffff16633412a15c6040518163ffffffff167c010000000000000000000000000000000000000000000000000000000002815260040160206040518083038186803b15801561139f57600080fd5b505afa1580156113b3573d6000803e3d6000fd5b505050506040513d60208110156113c957600080fd5b8101908080519060200190929190505050905090565b6000600b60009054906101000a900473ffffffffffffffffffffffffffffffffffffffff1673ffffffffffffffffffffffffffffffffffffffff16635c97f4a28360026040518363ffffffff167c0100000000000000000000000000000000000000000000000000000000028152600401808373ffffffffffffffffffffffffffffffffffffffff1673ffffffffffffffffffffffffffffffffffffffff1681526020018281526020019250505060206040518083038186803b1580156114a557600080fd5b505afa1580156114b9573d6000803e3d6000fd5b505050506040513d60208110156114cf57600080fd5b81019080805190602001909291905050506114e957600080fd5b6008549050919050565b6000600b60009054906101000a900473ffffffffffffffffffffffffffffffffffffffff1673ffffffffffffffffffffffffffffffffffffffff16635c97f4a28860016040518363ffffffff167c0100000000000000000000000000000000000000000000000000000000028152600401808373ffffffffffffffffffffffffffffffffffffffff1673ffffffffffffffffffffffffffffffffffffffff1681526020018281526020019250505060206040518083038186803b1580156115b957600080fd5b505afa1580156115cd573d6000803e3d6000fd5b505050506040513d60208110156115e357600080fd5b81019080805190602001909291905050506115fa57fe5b8460076000828254019250508190555060006116198888878787612d2f565b905060006001028114611630576001915050611636565b60009150505b9695505050505050565b6000600b60009054906101000a900473ffffffffffffffffffffffffffffffffffffffff1673ffffffffffffffffffffffffffffffffffffffff16635c97f4a28360036040518363ffffffff167c0100000000000000000000000000000000000000000000000000000000028152600401808373ffffffffffffffffffffffffffffffffffffffff1673ffffffffffffffffffffffffffffffffffffffff1681526020018281526020019250505060206040518083038186803b15801561170657600080fd5b505afa15801561171a573d6000803e3d6000fd5b505050506040513d602081101561173057600080fd5b810190808051906020019092919050505015611758576000600881905550600854905061175e565b60085490505b919050565b6000600b60009054906101000a900473ffffffffffffffffffffffffffffffffffffffff1673ffffffffffffffffffffffffffffffffffffffff16635c97f4a28860056040518363ffffffff167c0100000000000000000000000000000000000000000000000000000000028152600401808373ffffffffffffffffffffffffffffffffffffffff1673ffffffffffffffffffffffffffffffffffffffff1681526020018281526020019250505060206040518083038186803b15801561182957600080fd5b505afa15801561183d573d6000803e3d6000fd5b505050506040513d602081101561185357600080fd5b8101908080519060200190929190505050156118a457856008600082825401925050819055508560076000828254019250508190555060006118988887878787612d2f565b905060019150506118a9565b600090505b9695505050505050565b6060600b60009054906101000a900473ffffffffffffffffffffffffffffffffffffffff1673ffffffffffffffffffffffffffffffffffffffff16635c97f4a28360026040518363ffffffff167c0100000000000000000000000000000000000000000000000000000000028152600401808373ffffffffffffffffffffffffffffffffffffffff1673ffffffffffffffffffffffffffffffffffffffff1681526020018281526020019250505060206040518083038186803b15801561197957600080fd5b505afa15801561198d573d6000803e3d6000fd5b505050506040513d60208110156119a357600080fd5b81019080805190602001909291905050506119ba57fe5b60606001805490506040519080825280602002602001820160405280156119f05781602001602082028038833980820191505090505b50905060006001805490501115611a6a576000809050600060018054905090505b6000811115611a6757600180820381548110611a2957fe5b906000526020600020906004020160000154838380600101945081518110611a4d57fe5b602002602001018181525050808060019003915050611a11565b50505b80915050919050565b6060806060600b60009054906101000a900473ffffffffffffffffffffffffffffffffffffffff1673ffffffffffffffffffffffffffffffffffffffff16635c97f4a28660026040518363ffffffff167c0100000000000000000000000000000000000000000000000000000000028152600401808373ffffffffffffffffffffffffffffffffffffffff1673ffffffffffffffffffffffffffffffffffffffff1681526020018281526020019250505060206040518083038186803b158015611b3c57600080fd5b505afa158015611b50573d6000803e3d6000fd5b505050506040513d6020811015611b6657600080fd5b810190808051906020019092919050505015611e2457611b85846112cb565b15611d9d5760006001611b9786612f82565b81548110611ba157fe5b90600052602060002090600402019050806001018160020182600301828054600181600116156101000203166002900480601f016020809104026020016040519081016040528092919081815260200182805460018160011615610100020316600290048015611c525780601f10611c2757610100808354040283529160200191611c52565b820191906000526020600020905b815481529060010190602001808311611c3557829003601f168201915b50505050509250818054600181600116156101000203166002900480601f016020809104026020016040519081016040528092919081815260200182805460018160011615610100020316600290048015611cee5780601f10611cc357610100808354040283529160200191611cee565b820191906000526020600020905b815481529060010190602001808311611cd157829003601f168201915b50505050509150808054600181600116156101000203166002900480601f016020809104026020016040519081016040528092919081815260200182805460018160011615610100020316600290048015611d8a5780601f10611d5f57610100808354040283529160200191611d8a565b820191906000526020600020905b815481529060010190602001808311611d6d57829003601f168201915b5050505050905093509350935050611ea7565b6040518060400160405280600181526020017f30000000000000000000000000000000000000000000000000000000000000008152506040518060400160405280600181526020017f300000000000000000000000000000000000000000000000000000000000000081525060405180602001604052806000815250925092509250611ea7565b6040518060400160405280600181526020017f30000000000000000000000000000000000000000000000000000000000000008152506040518060400160405280600181526020017f3000000000000000000000000000000000000000000000000000000000000000815250604051806020016040528060008152509250925092505b9250925092565b6000600b60009054906101000a900473ffffffffffffffffffffffffffffffffffffffff1673ffffffffffffffffffffffffffffffffffffffff16635c97f4a28860016040518363ffffffff167c0100000000000000000000000000000000000000000000000000000000028152600401808373ffffffffffffffffffffffffffffffffffffffff1673ffffffffffffffffffffffffffffffffffffffff1681526020018281526020019250505060206040518083038186803b158015611f7457600080fd5b505afa158015611f88573d6000803e3d6000fd5b505050506040513d6020811015611f9e57600080fd5b810190808051906020019092919050505015611fdf57846005600082825401925050819055506000611fd38888878787612d2f565b90506001915050611fe4565b600090505b9695505050505050565b6000600b60009054906101000a900473ffffffffffffffffffffffffffffffffffffffff1673ffffffffffffffffffffffffffffffffffffffff16635c97f4a28360036040518363ffffffff167c0100000000000000000000000000000000000000000000000000000000028152600401808373ffffffffffffffffffffffffffffffffffffffff1673ffffffffffffffffffffffffffffffffffffffff1681526020018281526020019250505060206040518083038186803b1580156120b457600080fd5b505afa1580156120c8573d6000803e3d6000fd5b505050506040513d60208110156120de57600080fd5b810190808051906020019092919050505015612106576000600581905550600554905061210c565b60055490505b919050565b6000600b60009054906101000a900473ffffffffffffffffffffffffffffffffffffffff1673ffffffffffffffffffffffffffffffffffffffff16635c97f4a28460036040518363ffffffff167c0100000000000000000000000000000000000000000000000000000000028152600401808373ffffffffffffffffffffffffffffffffffffffff1673ffffffffffffffffffffffffffffffffffffffff1681526020018281526020019250505060206040518083038186803b1580156121d757600080fd5b505afa1580156121eb573d6000803e3d6000fd5b505050506040513d602081101561220157600080fd5b8101908080519060200190929190505050156123495760006002805490509050600080905060008090505b828110156122b5578473ffffffffffffffffffffffffffffffffffffffff166002828154811061225857fe5b9060005260206000200160009054906101000a900473ffffffffffffffffffffffffffffffffffffffff1673ffffffffffffffffffffffffffffffffffffffff1614156122a857600191506122b5565b808060010191505061222c565b508061233e5760096000815480929190600101919050555060028490806001815401808255809150509060018203906000526020600020016000909192909190916101000a81548173ffffffffffffffffffffffffffffffffffffffff021916908373ffffffffffffffffffffffffffffffffffffffff1602179055505060019250505061234e565b60009250505061234e565b600090505b92915050565b6000809054906101000a900473ffffffffffffffffffffffffffffffffffffffff1681565b6000600b60009054906101000a900473ffffffffffffffffffffffffffffffffffffffff1673ffffffffffffffffffffffffffffffffffffffff16635c97f4a28360026040518363ffffffff167c0100000000000000000000000000000000000000000000000000000000028152600401808373ffffffffffffffffffffffffffffffffffffffff1673ffffffffffffffffffffffffffffffffffffffff1681526020018281526020019250505060206040518083038186803b15801561243f57600080fd5b505afa158015612453573d6000803e3d6000fd5b505050506040513d602081101561246957600080fd5b810190808051906020019092919050505061248357600080fd5b600061248e836113df565b9050600061249b846127b3565b90508082816124a657fe5b0492505050919050565b6000600a60009054906101000a900473ffffffffffffffffffffffffffffffffffffffff16905090565b60008060009054906101000a900473ffffffffffffffffffffffffffffffffffffffff1673ffffffffffffffffffffffffffffffffffffffff163373ffffffffffffffffffffffffffffffffffffffff161461253557600080fd5b81600a60006101000a81548173ffffffffffffffffffffffffffffffffffffffff021916908373ffffffffffffffffffffffffffffffffffffffff160217905550600a60009054906101000a900473ffffffffffffffffffffffffffffffffffffffff16600b60006101000a81548173ffffffffffffffffffffffffffffffffffffffff021916908373ffffffffffffffffffffffffffffffffffffffff160217905550600b60009054906101000a900473ffffffffffffffffffffffffffffffffffffffff1673ffffffffffffffffffffffffffffffffffffffff16633412a15c6040518163ffffffff167c010000000000000000000000000000000000000000000000000000000002815260040160206040518083038186803b15801561265d57600080fd5b505afa158015612671573d6000803e3d6000fd5b505050506040513d602081101561268757600080fd5b81019080805190602001909291905050509050919050565b6000600b60009054906101000a900473ffffffffffffffffffffffffffffffffffffffff1673ffffffffffffffffffffffffffffffffffffffff16635c97f4a28360026040518363ffffffff167c0100000000000000000000000000000000000000000000000000000000028152600401808373ffffffffffffffffffffffffffffffffffffffff1673ffffffffffffffffffffffffffffffffffffffff1681526020018281526020019250505060206040518083038186803b15801561276557600080fd5b505afa158015612779573d6000803e3d6000fd5b505050506040513d602081101561278f57600080fd5b81019080805190602001909291905050506127a957600080fd5b6005549050919050565b6000600b60009054906101000a900473ffffffffffffffffffffffffffffffffffffffff1673ffffffffffffffffffffffffffffffffffffffff16635c97f4a28360036040518363ffffffff167c0100000000000000000000000000000000000000000000000000000000028152600401808373ffffffffffffffffffffffffffffffffffffffff1673ffffffffffffffffffffffffffffffffffffffff1681526020018281526020019250505060206040518083038186803b15801561287957600080fd5b505afa15801561288d573d6000803e3d6000fd5b505050506040513d60208110156128a357600080fd5b8101908080519060200190929190505050156128c35760095490506128c8565b600090505b919050565b6000809054906101000a900473ffffffffffffffffffffffffffffffffffffffff1673ffffffffffffffffffffffffffffffffffffffff163373ffffffffffffffffffffffffffffffffffffffff161461292657600080fd5b600073ffffffffffffffffffffffffffffffffffffffff168173ffffffffffffffffffffffffffffffffffffffff16141561296057600080fd5b8073ffffffffffffffffffffffffffffffffffffffff166000809054906101000a900473ffffffffffffffffffffffffffffffffffffffff1673ffffffffffffffffffffffffffffffffffffffff167f8be0079c531659141344cd1fd0a4f28419497f9722a3daafe3b4186f6b6457e060405160405180910390a3806000806101000a81548173ffffffffffffffffffffffffffffffffffffffff021916908373ffffffffffffffffffffffffffffffffffffffff16021790555050565b6000600b60009054906101000a900473ffffffffffffffffffffffffffffffffffffffff1673ffffffffffffffffffffffffffffffffffffffff16635c97f4a28360036040518363ffffffff167c0100000000000000000000000000000000000000000000000000000000028152600401808373ffffffffffffffffffffffffffffffffffffffff1673ffffffffffffffffffffffffffffffffffffffff1681526020018281526020019250505060206040518083038186803b158015612ae457600080fd5b505afa158015612af8573d6000803e3d6000fd5b505050506040513d6020811015612b0e57600080fd5b810190808051906020019092919050505015612bd9576000612b2e612fb6565b90506000612b3a612fc0565b9050600080905081831115612b525760019050612b68565b6000606484029050828181612b6357fe5b049150505b60004290506060612b7883612be3565b90506060612b8583612be3565b9050612bca8883836040518060400160405280600381526020017f43526900000000000000000000000000000000000000000000000000000000008152506000612d2f565b50839650505050505050612bde565b600090505b919050565b60606000821415612c2b576040518060400160405280600181526020017f30000000000000000000000000000000000000000000000000000000000000008152509050612d2a565b600082905060005b60008214612c55578080600101915050600a8281612c4d57fe5b049150612c33565b6060816040519080825280601f01601f191660200182016040528015612c8a5781602001600182028038833980820191505090505b50905060006001830390505b60008614612d2257600a8681612ca857fe5b066030017f01000000000000000000000000000000000000000000000000000000000000000282828060019003935081518110612ce157fe5b60200101907effffffffffffffffffffffffffffffffffffffffffffffffffffffffffffff1916908160001a905350600a8681612d1a57fe5b049550612c96565b819450505050505b919050565b60008086868686604051602001808573ffffffffffffffffffffffffffffffffffffffff1673ffffffffffffffffffffffffffffffffffffffff166c0100000000000000000000000002815260140184805190602001908083835b60208310612dad5780518252602082019150602081019050602083039250612d8a565b6001836020036101000a03801982511681845116808217855250505050505090500183805190602001908083835b60208310612dfe5780518252602082019150602081019050602083039250612ddb565b6001836020036101000a03801982511681845116808217855250505050505090500182805190602001908083835b60208310612e4f5780518252602082019150602081019050602083039250612e2c565b6001836020036101000a038019825116818451168082178552505050505050905001945050505050604051602081830303815290604052805190602001209050612e98816112cb565b15612ea257600080fd5b600060018060405180608001604052808581526020018a81526020018981526020018881525090806001815401808255809150509060018203906000526020600020906004020160009091929091909150600082015181600001556020820151816001019080519060200190612f19929190612fca565b506040820151816002019080519060200190612f36929190612fca565b506060820151816003019080519060200190612f53929190612fca565b505050039050600181016003600084815260200190815260200160002081905550819250505095945050505050565b6000612f8d826112cb565b15612fb05760016003600084815260200190815260200160002054039050612fb1565b5b919050565b6000600554905090565b6000600754905090565b828054600181600116156101000203166002900490600052602060002090601f016020900481019282601f1061300b57805160ff1916838001178555613039565b82800160010185558215613039579182015b8281111561303857825182559160200191906001019061301d565b5b509050613046919061304a565b5090565b61306c91905b80821115613068576000816000905550600101613050565b5090565b9056fea265627a7a723158200575ff0466ec3e85fcbd25bd6c5cc5fcd5fa7a1c9a4a39e0f3d0bce74f9274fa64736f6c634300050b0032",
  "source": "pragma solidity >=0.4.22 <0.6.0;\r\n \r\nimport \"./Ownable.sol\";\r\nimport \"./RBACinterface.sol\";\r\n\r\n//WARNING: energy values has to be multiplied by 100 (for make possible consider the value like \"x.ywz\")\r\n//WARING: the CRi result is multiplied by 100 (for not lose the decimal)\r\n\r\n/// @title DataStorageSystem\r\n/// @author Tommaso Pessina\r\n/// @notice Collects and provides energy information\r\ncontract dss is Ownable {\r\n    \r\n    uint constant addPermission = 1; //Permission for adding energy (used or produced)\r\n    uint constant getPermission = 2; //Permission for getting energy data (used or produced)\r\n    uint constant adminPermission = 3; //Permission for adding new user or getting num. of user\r\n    uint constant readPermission = 4; //Not used\r\n    uint constant commonPermission = 5; //Permission for adding or getting common energy.\r\n    \r\n    Data[] data; \r\n    address[] user;\r\n    mapping(bytes32 => uint) dataIdToIndex; //Valutare l'eliminazione\r\n    mapping(address => uint) dataIdToAddress;\r\n    \r\n    uint totalEnergyProduced = 0; //KWh\r\n    uint energyLeft = 0; //KWh //not used\r\n    uint totalEnergyUsed = 0;\r\n    uint totalCommonEnergyUsed = 0;\r\n \r\n    uint numUser = 0; //Necessary for calculate the ripartition coeficent (of common energy used)\r\n \r\n     //RBAC address\r\n    address internal rbacAddr = 0x0000000000000000000000000000000000000000; //Initial dummy address\r\n    RBACinterface internal rbac = RBACinterface(rbacAddr);  \r\n \r\n    //defines a struct \"Data\"\r\n    struct Data {\r\n        bytes32 id; //Identificator of the data\r\n        //address addr; //Address of who produced or used the energy\r\n        //uint energy; //The quantity of energy\r\n        // uint date; //The production's date of the data\r\n        string value;\r\n        string ts;\r\n        string topic;\r\n    }\r\n    \r\n    //Function that reset the counter of totalEnergyUsed, require adminPermission\r\n    function resetTotalEnergyUsed(address x) public returns(uint){\r\n        if(rbac.hasRole(x,adminPermission)){\r\n            totalEnergyUsed = 0;\r\n            return totalEnergyUsed;\r\n        }else{\r\n            return totalEnergyUsed;\r\n        }\r\n    }\r\n    \r\n    //Function that reset the counter of totalEnergyProduced, require adminPermission\r\n    function resetTotalEnergyProduced(address x) public returns(uint){\r\n        if(rbac.hasRole(x,adminPermission)){\r\n            totalEnergyProduced = 0;\r\n            return totalEnergyProduced;\r\n        }else{\r\n            return totalEnergyProduced;\r\n        }\r\n    }\r\n    \r\n    //Function that reset the counter of totalCommonEnergyUsed, require adminPermission\r\n    function resetTotalCommonEnergyUsed(address x) public returns(uint){\r\n        if(rbac.hasRole(x,adminPermission)){\r\n            totalCommonEnergyUsed = 0;\r\n            return totalCommonEnergyUsed;\r\n        }else{\r\n            return totalCommonEnergyUsed;\r\n        }\r\n    }\r\n    \r\n    //function that return the number of user in the system, require adminPermission\r\n    function getNumUser(address x) public view returns(uint){\r\n        if (rbac.hasRole(x,adminPermission)){\r\n            return numUser;\r\n        }\r\n        else{\r\n            return 0;\r\n        }\r\n    }\r\n    \r\n    //Function for gettin the i-th coefficient of ripartition, require adminPermission\r\n    function getCRi(address caller) public returns (uint){\r\n        if (rbac.hasRole(caller,adminPermission)){\r\n            uint prodTmp = showEnergyProducedPVT();\r\n            uint tot = showTotalEnergyUsedPVT();\r\n            uint res = 0;\r\n            if(prodTmp > tot){\r\n                 res = 1; //Because the result will be divided by 100\r\n            }else{\r\n                uint prod = prodTmp*100; //for not lose the decimal\r\n                res = prod/tot;\r\n                //uint resTmp = res*100; //float not work\r\n            }\r\n            //unit to string\r\n            uint ts = block.timestamp;\r\n            string memory resString = uint2str(res);\r\n            string memory tsString = uint2str(ts);\r\n            addData(caller,resString,tsString,\"CRi\",0);\r\n            return res; //is the real result multiplied by 100\r\n        }\r\n        else{\r\n            return 0; //default value \r\n        }\r\n    }   \r\n    \r\n function uint2str(uint _i) public pure returns (string memory _uintAsString) {\r\n    if (_i == 0) {\r\n        return \"0\";\r\n    }\r\n    uint j = _i;\r\n    uint len;\r\n    while (j != 0) {\r\n        len++;\r\n        j /= 10;\r\n    }\r\n    bytes memory bstr = new bytes(len);\r\n    uint k = len - 1;\r\n    while (_i != 0) {\r\n        bstr[k--] = byte(uint8(48 + _i % 10));\r\n        _i /= 10;\r\n    }\r\n    return string(bstr);\r\n}  \r\n\r\n    //Function that allow to add an user, require adminPermission\r\n    function addUser(address caller, address userIN) public returns (bool){\r\n        if (rbac.hasRole(caller,adminPermission)){\r\n            uint arrayLength = user.length;\r\n            bool found=false;\r\n            //Check if the user is already present\r\n            for (uint i=0; i<arrayLength; i++) {\r\n                if(user[i]==userIN){\r\n                    found=true;\r\n                    break;\r\n                }\r\n            }\r\n            if(!found){\r\n                numUser++;\r\n                user.push(userIN);\r\n                return true;\r\n            }\r\n            else{\r\n                return false;\r\n            }\r\n        }else{\r\n            return false;\r\n        }\r\n    }\r\n    \r\n    //Function for adding the energy produced in the data structure, require addPermission\r\n    function addEnergyProduced(address x, string memory value,uint energy, string memory ts, string memory topic, uint option) public returns(bool){\r\n        if(rbac.hasRole(x,addPermission)){\r\n            totalEnergyProduced += energy;\r\n            bytes32 tmp = addData(x,value,ts,topic,option); //call the function for adding the data\r\n            return true;\r\n        }else{\r\n            return false;\r\n        }\r\n    }\r\n    \r\n    //Function for adding the common energy used by updating the counter, require commonPermission\r\n    function addCommonEnergyUsed(address x, uint energy, string memory value, string memory ts, string memory topic, uint option) public returns(bool){\r\n        if(rbac.hasRole(x,commonPermission)){\r\n            totalCommonEnergyUsed += energy;\r\n            totalEnergyUsed += energy;\r\n            bytes32 tmp = addData(x,value,ts,topic,option); //call the function for adding the data\r\n            return true;\r\n        }else{\r\n            return false;\r\n        }\r\n    }\r\n    \r\n    //function for getting the common energy used (his counter), require getPermission\r\n    function getCommonEnergyUsed(address x) public view returns(uint){\r\n        require(rbac.hasRole(x,getPermission));\r\n        return totalCommonEnergyUsed;\r\n    }\r\n    \r\n    //function for the ripartition of the common energy used by the num of user, require getPermission  \r\n    function getRipartitionCoeficent(address x) public view returns(uint){\r\n        require(rbac.hasRole(x,getPermission));\r\n        uint energy = getCommonEnergyUsed(x);\r\n        uint nUser = getNumUser(x);\r\n        return energy/nUser; \r\n    }\r\n    \r\n    function addEnergyUsed(address x, string memory value, uint energy, string memory ts, string memory topic, uint option) public returns(bool){\r\n        assert(rbac.hasRole(x,addPermission));\r\n        \r\n        totalEnergyUsed += energy;\r\n        \r\n        bytes32 tmp = addData(x,value,ts,topic,option);\r\n        \r\n        if(tmp!=0){\r\n            return true;\r\n        }\r\n        else{\r\n            return false;\r\n        }\r\n        /*\r\n        //Create a unique id\r\n        bytes32 id = keccak256(abi.encodePacked(energy,x));\r\n        //Check that the id does not already exists\r\n        require(!dataExists(id));\r\n     \r\n        //If there is nothing, add data\r\n        if(dataIdToAddress[x] == 0){\r\n            uint newIndex = data.push(Data(id, x, energy))-1;  \r\n            dataIdToIndex[id] = newIndex+1;\r\n            dataIdToAddress[x] = newIndex+1;\r\n            return true;\r\n        }\r\n        //If there is a data, update that\r\n        else{\r\n            uint oldEnergy = showEnergyUsedPVT(x);\r\n            uint newIndex = data.push(Data(id, x, energy+oldEnergy))-1;  \r\n            dataIdToIndex[id] = newIndex+1;\r\n            dataIdToAddress[x] = newIndex+1;\r\n            return true;\r\n        }*/\r\n    }\r\n    \r\n    //Function for adding the data in the smart contract. This can only be called by the other function, so is private.\r\n    function addData(address caller, string memory value, string memory ts, string memory topic, uint option) private returns (bytes32){\r\n         //Create a unique id\r\n        bytes32 id = keccak256(abi.encodePacked(caller,value,ts,topic));\r\n        //Check that the id does not already exists\r\n        require(!dataExists(id));\r\n        uint newIndex = data.push(Data(id, value, ts, topic))-1;  \r\n        dataIdToIndex[id] = newIndex+1;\r\n        return id;\r\n    }\r\n    \r\n    /// @notice gets the unique ids of data, pending and read, in reverse chronological order\r\n    /// @return an array of unique data ids\r\n    function getAllData(address x) public view returns (bytes32[] memory) {\r\n        assert(rbac.hasRole(x,getPermission));\r\n        bytes32[] memory output = new bytes32[](data.length); \r\n\r\n        //get all ids \r\n        if (data.length > 0) {\r\n            uint index = 0;\r\n            for (uint n = data.length; n > 0; n--) {\r\n                output[index++] = data[n-1].id;\r\n            }\r\n        }\r\n        \r\n        return output; \r\n    }\r\n\r\n    \r\n    function _getDataByAddress(address a) private view returns (uint) {\r\n        return dataIdToAddress[a]-1;  \r\n    }\r\n    \r\n/*    function showEnergyUsed(address call, address x) public view returns (uint){\r\n        require(rbac.hasRole(call,getPermission));\r\n        Data storage theData = data[_getDataByAddress(x)];\r\n        return theData.energy;  \r\n    }*/\r\n    \r\n/*    function showEnergyUsedPVT(address x) private view returns (uint){\r\n        Data storage theData = data[_getDataByAddress(x)];\r\n        return theData.energy;  \r\n    }*/\r\n    \r\n    /* NOT implemented\r\n    function showEnergyLeft(address caller) public returns (uint){\r\n        \r\n    }*/\r\n    \r\n    //function for showing the data given the id. Require getPermission\r\n    function showData(address caller, bytes32 id) public view returns(string memory value, string memory ts, string memory topic){\r\n        //check if data exits (given an id)\r\n        if(rbac.hasRole(caller, getPermission)){\r\n            if (dataExists(id)) {\r\n                Data storage theData = data[_getDataIndex(id)];\r\n                return (theData.value, theData.ts, theData.topic); \r\n            }\r\n            else {\r\n                return (\"0\",\"0\",\"\");\r\n            }\r\n        }else{\r\n            return (\"0\",\"0\",\"\");\r\n        }\r\n    }\r\n    \r\n    \r\n    //Function that show the counter of totalEnergyUsed, require getPermission\r\n    function showTotalEnergyUsed(address caller) public view returns (uint){\r\n        require(rbac.hasRole(caller,getPermission));\r\n        return totalEnergyUsed;\r\n    }\r\n    \r\n    //Function that show the counter of totalEnergyUsed, ONLY for ptivate use.\r\n    function showTotalEnergyUsedPVT() private view returns (uint){\r\n        return totalEnergyUsed;\r\n    }\r\n    \r\n    //function that show the total energy produced, require getPermission\r\n    function showEnergyProduced(address caller) public view returns (uint){\r\n        require(rbac.hasRole(caller,getPermission));\r\n        return totalEnergyProduced;\r\n    }\r\n    \r\n    //Function that show the total energy produced, ONLY for private use\r\n    function showEnergyProducedPVT() private view returns (uint){\r\n        return totalEnergyProduced;\r\n    }\r\n     \r\n     /// @notice sets the address of the rbac contract to use  \r\n    /// @dev setting a wrong address may result in false return value, or error  \r\n    /// @param _rbacAddress the address of the rbac  \r\n    /// @return true if connection to the new rbac address was successful\r\n    function setRBACaddress(address _rbacAddress) external onlyOwner returns (bool) {\r\n        rbacAddr = _rbacAddress;\r\n        rbac = RBACinterface(rbacAddr);  \r\n        return rbac.testConnection();\r\n    }\r\n     \r\n    /// @notice gets the address of the dss being used  \r\n    /// @return the address of the currently set dss  \r\n    function getRBACaddress() external view returns (address) {\r\n        return rbacAddr;\r\n    }\r\n     \r\n    /// @notice for testing; tests that the dss is callable  \r\n    /// @return true if connection successful  \r\n    function testRBACconnection() public view returns (bool) {\r\n        return rbac.testConnection();  \r\n    }\r\n \r\n    /// @notice returns the array index of the data with the given id  \r\n    /// @dev if the data id is invalid, then the return value will be incorrect and may cause error;\r\n    /// @param dataId the data id to get\r\n    /// @return an array index  \r\n    function _getDataIndex(bytes32 dataId) private view returns (uint) {\r\n        if(dataExists(dataId))\r\n            return dataIdToIndex[dataId]-1;  \r\n    }\r\n \r\n \r\n    /// @notice determines whether a data exists with the given id  \r\n    /// @param _dataId the data id to test\r\n    /// @return true if data exists and id is valid\r\n    function dataExists(bytes32 _dataId) public view returns (bool) {  //private?\r\n        if (data.length == 0)\r\n            return false;\r\n        uint index = dataIdToIndex[_dataId];  \r\n        return (index > 0);  \r\n    }\r\n\r\n    /// @notice can be used by a client contract to ensure that they've connected to this contract interface successfully\r\n    /// @return true, unconditionally  \r\n    function testConnection() public pure returns (bool) {\r\n        return true;  \r\n    }\r\n \r\n    /// @notice gets the address of this contract  \r\n    /// @return address  \r\n    function getAddress() public view returns (address) {\r\n        return address(this);\r\n    }\r\n\r\n}\r\n\r\n\r\n\r\n",
  "sourcePath": "/home/tompe/Scrivania/STAGE/UFFICIAL/dss/contracts/dss.sol",
  "compiler": {
    "name": "solc",
    "version": "0.5.11+commit.c082d0b4.Emscripten.clang"
  },
  "schemaVersion": "3.0.15",
  "updatedAt": "2020-11-24T12:41:35.842Z",
  "devdoc": {
    "methods": {
      "dataExists(bytes32)": {
        "return": "true if data exists and id is valid"
      },
      "getAddress()": {
        "return": "address  "
      },
      "getAllData(address)": {
        "return": "an array of unique data ids"
      },
      "getRBACaddress()": {
        "return": "the address of the currently set dss  "
      },
      "setRBACaddress(address)": {
        "return": "true if connection to the new rbac address was successful"
      },
      "testConnection()": {
        "return": "true, unconditionally  "
      },
      "testRBACconnection()": {
        "return": "true if connection successful  "
      },
      "transferOwnership(address)": {
        "details": "Allows the current owner to transfer control of the contract to a newOwner.\r",
        "params": {
          "newOwner": "The address to transfer ownership to.\r"
        }
      }
    }
  },
  "userdoc": {
    "methods": {},
    "notice": "Collects and provides energy information"
  }
}